:100000000C942A000C9447000C9447000C94470071
:100010000C9447000C9447000C9447000C94470044
:100020000C9447000C9447000C94FF080C9496081D
:100030000C9447000C9447000C9447000C94470024
:100040000C94F70D0C9447000C9447000C94470057
:100050000C94470011241FBECFE5D8E0DEBFCDBF12
:1000600010E0A0E6B0E0E6E3F7E302C005900D92F1
:10007000AC3CB107D9F710E0ACECB0E001C01D9288
:10008000AC3EB107E1F70E9445160C94991B0C9405
:100090000000EF92FF920F931F937B018C0120E0F1
:1000A00030E040E05FE40E94490388238CF0C801FF
:1000B000B70120E030E040E05FE40E94C1010E940F
:1000C000A9039B01AC01205030404040504806C07D
:1000D000C801B7010E94A9039B01AC01B901CA0183
:1000E0001F910F91FF90EF900895A0E0B0E0EBE733
:1000F000F0E00C94521BDC012B01FA019C91923030
:1001000008F439C1EB018881823008F433C194309E
:1001100069F4843009F02FC111969C91119789815F
:10012000981709F428C1ACEAB0E025C1843009F47D
:1001300021C18230A9F4923009F01DC19A01AD01AC
:1001400088E0EA010990AE01E90109929E0181501F
:10015000C1F7E201898111969C918923818308C1AD
:10016000923009F407C112962D903C901397EB0141
:100170008A819B811496AD90BD90CD90DC901797AD
:10018000EC80FD800E811F819101281B390BB90184
:1001900037FF04C066277727621B730B6032710537
:1001A0000CF061C0121613066CF537014801062EDB
:1001B00004C096948794779467940A94D2F721E0C8
:1001C00030E040E050E004C0220F331F441F551FB1
:1001D0006A95D2F721503040404050402E213F21B7
:1001E00040235123211531054105510521F021E01E
:1001F00030E040E050E079018A01E628F72808293C
:1002000019293CC0232BD1F1260E371E350146019A
:10021000062E04C096948794779467940A94D2F734
:1002200021E030E040E050E004C0220F331F441FC3
:10023000551F6A95D2F721503040404050402A2146
:100240003B214C215D21211531054105510521F04E
:1002500021E030E040E050E059016A01A628B728CB
:10026000C828D9280BC0821593052CF01C01AA249C
:10027000BB24650103C0EE24FF24870111969C91E5
:10028000D20111968C91981709F445C0992339F041
:10029000A80197012A193B094C095D0906C0A6016E
:1002A00095012E193F09400B510B57FD08C01182D3
:1002B0003382228224833583468357831DC081E0A5
:1002C00081833382228288279927DC01821B930B4A
:1002D000A40BB50B84839583A683B7830DC0220F2F
:1002E000331F441F551F24833583468357838281E0
:1002F000938101979383828324813581468157813D
:10030000DA01C9010197A109B1098F5F9F4FAF4F72
:10031000BF4328F30BC0918333822282EA0CFB1C7B
:100320000C1D1D1DE482F5820683178383E0808304
:10033000248135814681578157FF1AC0C901AA27F8
:1003400097FDA095BA2F81709070A070B0705695EF
:10035000479537952795822B932BA42BB52B848318
:100360009583A683B7838281938101969383828349
:10037000DF0101C0D201CD01CDB7DEB7E2E10C94BF
:100380006E1BA0E2B0E0E7ECF1E00C945E1B698329
:100390007A838B839C832D833E834F835887E9E048
:1003A000EE2EF12CEC0EFD1ECE010196B7010E943F
:1003B000D2048E010F5E1F4FCE010596B8010E9438
:1003C000D2048A8991E089278A8BC701B801AE01DE
:1003D000475E5F4F0E9475000E94FD03A096E6E015
:1003E0000C947A1BA0E2B0E0E8EFF1E00C945E1B05
:1003F00069837A838B839C832D833E834F835887C5
:10040000F9E0EF2EF12CEC0EFD1ECE010196B701A6
:100410000E94D2048E010F5E1F4FCE010596B801D7
:100420000E94D204C701B801AE01475E5F4F0E942F
:1004300075000E94FD03A096E6E00C947A1BA0E2F2
:10044000B0E0E5E2F2E00C94521B69837A838B837F
:100450009C832D833E834F835887CE010196BE0136
:10046000675F7F4F0E94D204CE010596BE016F5E8A
:100470007F4F0E94D2049985923088F0898982301A
:10048000C8F0943019F4823051F404C0843029F457
:10049000923081F48CEA90E0C6C0923049F420E0BA
:1004A0009A858A89981321E02A87CE010996BBC0D4
:1004B000823049F420E09A858A89981321E02A8BBA
:1004C000CE014196B0C02D843E844F8458886D88FB
:1004D0007E888F88988CEE24FF248701AA24BB2471
:1004E000650140E050E060E070E0E0E0F0E0C10174
:1004F00081709070892BE9F0E60CF71C081D191D1E
:100500009A01AB012A0D3B1D4C1D5D1D80E090E062
:10051000A0E0B0E0E614F7040805190520F481E036
:1005200090E0A0E0B0E0BA01A901480F591F6A1F8E
:100530007B1FAA0CBB1CCC1CDD1C97FE08C081E0F5
:1005400090E0A0E0B0E0A82AB92ACA2ADB2A3196B6
:10055000E032F10549F0660C771C881C991C569412
:10056000479437942794C3CFFA85EA892B893C892D
:100570008B859C85280F391F2E5F3F4F17C0CA01FE
:1005800081709070892B61F016950795F794E79428
:1005900080E090E0A0E0B0E8E82AF92A0A2B1B2BC3
:1005A00076956795579547952F5F3F4F77FDE7CF36
:1005B0000CC0440F551F661F771F17FD4160EE0CDE
:1005C000FF1C001F111F21503040403090E05907A0
:1005D00090E0690790E4790760F32B8F3C8FDB0193
:1005E000CA018F779070A070B07080349105A1051A
:1005F000B10561F447FD0AC0E114F10401051105DC
:1006000029F0405C5F4F6F4F7F4F40781A8EFE1786
:1006100011F081E08A8F4D8F5E8F6F8F78A383E01A
:10062000898FCE0149960E94FD03A096E2E10C94C9
:100630006E1BA8E1B0E0EFE1F3E00C945E1B698370
:100640007A838B839C832D833E834F83588789E0F5
:10065000E82EF12CEC0EFD1ECE010196B7010E9492
:10066000D2048E010F5E1F4FCE010596B8010E9485
:10067000D2048985823040F08989823028F0C70110
:10068000B8010E944A0501C08FEF6896E6E00C941D
:100690007A1BA8E1B0E0EFE4F3E00C945E1B698301
:1006A0007A838B839C832D833E834F83588789E095
:1006B000E82EF12CEC0EFD1ECE010196B7010E9432
:1006C000D2048E010F5E1F4FCE010596B8010E9425
:1006D000D2048985823040F08989823028F0C701B0
:1006E000B8010E944A0501C08FEF6896E6E00C94BD
:1006F0007A1BA8E1B0E0EFE7F3E00C945E1B69839E
:100700007A838B839C832D833E834F83588789E034
:10071000E82EF12CEC0EFD1ECE010196B7010E94D1
:10072000D2048E010F5E1F4FCE010596B8010E94C4
:10073000D2048985823040F08989823028F0C7014F
:10074000B8010E944A0501C081E06896E6E00C9479
:100750007A1BACE0B0E0EFEAF3E00C94621B698333
:100760007A838B839C83CE010196BE016B5F7F4FA2
:100770000E94D2048D81823061F1823050F1843048
:1007800021F48E81882351F12EC02F81388537FDC9
:1007900020C06E812F3131051CF06623F9F023C093
:1007A0008EE190E0821B930B29853A854B855C8511
:1007B00004C056954795379527958A95D2F76623B5
:1007C000B1F050954095309521953F4F4F4F5F4F79
:1007D0000EC020E030E040E050E009C02FEF3FEFD6
:1007E0004FEF5FE704C020E030E040E050E8B9019F
:1007F000CA012C96E2E00C947E1BDF92EF92FF92EE
:100800000F931F93FC01E480F58006811781D1804E
:100810008081823048F480E090E0A0E1B0E0E82AF6
:10082000F92A0A2B1B2BA5C0843009F49FC0823003
:1008300021F4EE24FF24870105C0E114F104010531
:10084000110519F4E0E0F0E096C0628173819FEF3A
:10085000623879070CF05BC022E83FEF261B370BAC
:100860002A3131052CF020E030E040E050E02AC091
:10087000B801A701022E04C0769567955795479554
:100880000A94D2F781E090E0A0E0B0E004C0880FC5
:10089000991FAA1FBB1F2A95D2F70197A109B10979
:1008A0008E219F21A023B1230097A105B10521F03E
:1008B00081E090E0A0E0B0E09A01AB01282B392B59
:1008C0004A2B5B2BDA01C9018F779070A070B07052
:1008D00080349105A105B10539F427FF09C0205CDA
:1008E0003F4F4F4F5F4F04C0215C3F4F4F4F5F4F13
:1008F000E0E0F0E02030A0E03A07A0E04A07A0E402
:100900005A0710F0E1E0F0E079018A0127C0603871
:10091000710564F5FB01E158FF4FD801C7018F77DE
:100920009070A070B07080349105A105B10539F4C4
:10093000E7FE0DC080E490E0A0E0B0E004C08FE3EB
:1009400090E0A0E0B0E0E80EF91E0A1F1B1F17FFA1
:1009500005C016950795F794E794319687E01695AC
:100960000795F794E7948A95D1F705C0EE24FF2404
:100970008701EFEFF0E06E2F679566276795902F60
:100980009F77D794DD24D7948E2F8695492F462BB9
:10099000582F5D29B701CA011F910F91FF90EF9069
:1009A000DF900895FC01DB01408151812281622F9B
:1009B0006F7770E0221F2227221F9381892F880FD3
:1009C000822B282F30E0991F9927991F11969C930D
:1009D000119721153105A9F54115510561057105DD
:1009E00011F482E037C082E89FEF13969C938E93B8
:1009F00012979A01AB0167E0220F331F441F551F66
:100A00006A95D1F783E08C930DC0220F331F441FEA
:100A1000551F12968D919C911397019713969C9355
:100A20008E931297203080E0380780E0480780E4FA
:100A3000580758F314962D933D934D935C93179755
:100A400008952F3F310579F4411551056105710570
:100A500019F484E08C93089564FF03C081E08C93C3
:100A600012C01C9210C02F57304013963C932E9307
:100A7000129783E08C9387E0440F551F661F771F02
:100A80008A95D1F7706414964D935D936D937C9322
:100A9000179708951F93DC01FB019C91923008F495
:100AA00047C08081823008F443C0943051F41196DD
:100AB0001C91843099F58181682F70E0611B710968
:100AC0003FC0843021F0923031F48230B9F181811D
:100AD000882389F12DC011961C9111978230F1F075
:100AE00081811817D9F412962D913C911397828128
:100AF00093818217930794F028173907BCF0149656
:100B00008D919D910D90BC91A02D248135814681C0
:100B10005781281739074A075B0718F4112341F05A
:100B20000AC082179307A407B50740F4112319F0F0
:100B300061E070E005C06FEF7FEF02C060E070E041
:100B4000CB011F910895DF93CF930F92CDB7DEB7FE
:100B5000898389818823FCF0E3E2F0E08981880FB2
:100B60008083A3E2B0E0E3E2F0E080818E7F8C93AB
:100B7000A6E5B0E0E6E5F0E080818F7D8C93A6E508
:100B8000B0E0E6E5F0E0808180688C93E6E5F0E097
:100B900080818823DCF70F90CF91DF910895DF9358
:100BA000CF930F92CDB7DEB78983E3E2F0E089817E
:100BB0008083A6E5B0E0E6E5F0E0808180688C9374
:100BC000E6E5F0E080818823DCF70F90CF91DF919C
:100BD0000895DF93CF93CDB7DEB7A6E5B0E0E6E5A5
:100BE000F0E0808180628C93A6E5B0E0E6E5F0E07D
:100BF000808180688C93E6E5F0E080818823DCF7D3
:100C0000CF91DF910895DF93CF930F92CDB7DEB7E9
:100C1000898389818823FCF0E3E2F0E08981880FF1
:100C20008083A3E2B0E0E3E2F0E0808181608C9316
:100C3000A6E5B0E0E6E5F0E080818F7D8C93A6E547
:100C4000B0E0E6E5F0E0808180688C93E6E5F0E0D6
:100C500080818823DCF70F90CF91DF910895DF9397
:100C6000CF93CDB7DEB7A6E5B0E0E6E5F0E0808152
:100C700080648C93A6E5B0E0E6E5F0E080818068D2
:100C80008C93E6E5F0E080818823DCF7E3E2F0E096
:100C90008081CF91DF910895DF93CF93CDB7DEB7F9
:100CA000A1E2B0E0E1E2F0E080818E7F8C93A1E2EE
:100CB000B0E0E1E2F0E080818D7F8C93E0E2F0E053
:100CC0008CE08083A6E5B0E0E6E5F0E0808180641A
:100CD0008C93A6E5B0E0E6E5F0E0808184608C933B
:100CE000CF91DF910895DF93CF93CDB7DEB7A6E51F
:100CF000B0E0E6E5F0E0808180628C93A6E5B0E0AC
:100D0000E6E5F0E0808180688C93E6E5F0E08081A4
:100D10008823DCF7CF91DF910895DF93CF93CDB790
:100D2000DEB7E6E5F0E084EC8083E6E5F0E0808184
:100D30008823DCF7E3E2F0E08081CF91DF91089532
:100D4000DF93CF93CDB7DEB7E6E5F0E084E98083AB
:100D5000CF91DF910895DF93CF93CDB7DEB7E2E275
:100D6000F0E084E08083A6E5B0E0E6E5F0E0808195
:100D70008F7D8C93A6E5B0E0E6E5F0E080818F7E84
:100D80008C93A6E5B0E0E6E5F0E0808184648C9386
:100D9000CF91DF910895DF93CF9300D0CDB7DEB729
:100DA000E6E5F0E080818823DCF7E1E2F0E0808195
:100DB000E6E5F0E084EC8083E6E5F0E080818823DE
:100DC000DCF7E3E2F0E08081898389810F900F9066
:100DD000CF91DF910895DF93CF9300D00F92CDB7DD
:100DE000DEB789836A834B8389818093EA00A3E518
:100DF000B0E0E3E5F0E08081877B8C93A3E5B0E091
:100E0000E3E5F0E08081282F8981882F90E08170D0
:100E100090700024969587950794969587950794EA
:100E2000982F802D822B8C93A3E5B0E0E3E5F0E0D2
:100E30008081282F8981882F90E082709070880FA0
:100E4000991F880F991F822B8C938A818093EB00C6
:100E5000A3E5B0E0E3E5F0E080818F7C8C93A3E52F
:100E6000B0E0E3E5F0E08081282F8B81882F90E0CF
:100E700082959295907F9827807F9827822B8C93DC
:100E80000F900F900F90CF91DF910895DF93CF9344
:100E9000CDB7DEB7A3E5B0E0E3E5F0E08081887F81
:100EA0008C93A3E5B0E0E3E5F0E090818091EB0066
:100EB000892B8C93CF91DF910895DF93CF93CDB79A
:100EC000DEB7A3E5B0E0E3E5F0E08081887F8C93B6
:100ED000CF91DF910895DF93CF93CDB7DEB72E97F3
:100EE0000FB6F894DEBF0FBECDBF6B877C878D87B2
:100EF0009E878091EB00882F90E00197880F991FC3
:100F0000FC01EC54FF4F80819181CC01A0E0B0E066
:100F100020E432E44FE050E0BC01CD010E94CF1A42
:100F2000DC01CB0120E034E244EF50E0BC01CD0114
:100F30000E94231BDA01C9018F839887A987BA878A
:100F40008B859C85AD85BE8528EE33E040E050E082
:100F5000BC01CD010E94CF1ADC01CB012F81388565
:100F600049855A85BC01CD010E94011BDA01C901E6
:100F70008B839C83AD83BE838091EA00882391F5A7
:100F80008B819C81AD81BE81892F9A2FAB2FBB278E
:100F90008093CC009093CD00A093CE00B093CF006F
:100FA0008B818093D0008091D000882309F457C0B2
:100FB000E2E5F0E08091D000819580838091CC00C3
:100FC0009091CD00A091CE00B091CF000196A11DCF
:100FD000B11D8093CC009093CD00A093CE00B09330
:100FE000CF003DC08091EA008230C9F580E091E0F9
:100FF0009A83898305C089819A8101979A8389831D
:1010000089819A819C0140E050E08B819C81AD8177
:10101000BE81BC01CD010E94011BDC01CB01009708
:10102000A105B10541F7ECE5F0E0898181508083AD
:1010300089819A819C0140E050E08B819C81AD8147
:10104000BE81BC01CD010E94011BDA01C901809360
:10105000CC009093CD00A093CE00B093CF002E96FD
:101060000FB6F894DEBF0FBECDBFCF91DF910895CC
:10107000DF93CF9300D0CDB7DEB79A838983809179
:10108000EA008823A9F4A9E5B0E0E9E5F0E0808171
:101090008C7F8C93A9E5B0E0E9E5F0E08081816088
:1010A0008C9389819A819093D2008093D10018C04B
:1010B0008091EA008230A1F4A9E5B0E0E9E5F0E032
:1010C00080818C7F8C93A9E5B0E0E9E5F0E0808138
:1010D00082608C9389819A819093D4008093D3000D
:1010E0000F900F90CF91DF910895DF93CF9300D0B1
:1010F0000F92CDB7DEB78B831A8219828B81882F2E
:1011000090E0982F882724E630E0B9010E94EE1A7B
:10111000CB0101979A838983ECE5F0E08981808394
:101120000F900F900F90CF91DF9108951F920F9223
:101130000FB60F9211242F933F934F935F936F93AA
:101140007F938F939F93AF93BF93EF93FF93DF931F
:10115000CF93CDB7DEB78091D5009091D600A09106
:10116000D700B091D8000196A11DB11D8093D50084
:101170009093D600A093D700B093D8002091D500CB
:101180003091D6004091D7005091D8008091CC008A
:101190009091CD00A091CE00B091CF0028173907D3
:1011A0004A075B07C9F4E2E5F0E08091D000819541
:1011B00080831092D5001092D6001092D700109222
:1011C000D8008091D1009091D200009729F0E09151
:1011D000D100F091D2000995CF91DF91FF91EF916D
:1011E000BF91AF919F918F917F916F915F914F913F
:1011F0003F912F910F900FBE0F901F9018951F9247
:101200000F920FB60F9211242F933F934F935F933A
:101210006F937F938F939F93AF93BF93EF93FF93BE
:10122000DF93CF93CDB7DEB78091D9009091DA00EC
:10123000A091DB00B091DC000196A11DB11D80934F
:10124000D9009093DA00A093DB00B093DC002091EA
:10125000D9003091DA004091DB005091DC008091A0
:10126000CC009091CD00A091CE00B091CF00281776
:1012700039074A075B0799F48091D3009091D40015
:10128000009729F0E091D300F091D40009951092D5
:10129000D9001092DA001092DB001092DC00CF919E
:1012A000DF91FF91EF91BF91AF919F918F917F91CE
:1012B0006F915F914F913F912F910F900FBE0F90C3
:1012C0001F901895DF93CF93CDB7DEB7AFE5B0E0B1
:1012D000EFE5F0E0808180688C93CF91DF910895F5
:1012E000DF93CF93CDB7DEB7AFE5B0E0EFE5F0E049
:1012F00080818F778C93CF91DF910895DF93CF9387
:1013000000D000D000D0CDB7DEB789836A838A8150
:10131000813009F07FC08981869586958695282F32
:1013200030E03E832D838D819E818130910569F16E
:101330002D813E81223031052CF48D819E810097D4
:1013400069F0EEC02D813E8122303105A9F18D81F9
:101350009E818330910509F446C0E2C0AAE3B0E063
:10136000EAE3F0E08081482F8981882F90E09C019A
:101370002770307081E090E0022E02C0880F991F24
:101380000A94E2F7842B8C93CBC0A7E3B0E0E7E3A9
:10139000F0E08081482F8981882F90E09C012770A0
:1013A000307081E090E0022E02C0880F991F0A94ED
:1013B000E2F7842B8C93B4C0A4E3B0E0E4E3F0E064
:1013C0008081482F8981882F90E09C0127703070A0
:1013D00081E090E0022E02C0880F991F0A94E2F784
:1013E000842B8C939DC0A1E3B0E0E1E3F0E0808129
:1013F000482F8981882F90E09C012770307081E010
:1014000090E0022E02C0880F991F0A94E2F7842B05
:101410008C9386C08A81882309F082C08981869551
:1014200086958695282F30E03C832B838B819C8189
:101430008130910571F12B813C81223031052CF4F2
:101440008B819C81009769F06BC02B813C8122309D
:101450003105B9F18B819C818330910509F449C034
:101460005FC0AAE3B0E0EAE3F0E08081482F898121
:10147000882F90E09C012770307081E090E0022E70
:1014800002C0880F991F0A94E2F7809584238C93F9
:1014900047C0A7E3B0E0E7E3F0E08081482F89810F
:1014A000882F90E09C012770307081E090E0022E40
:1014B00002C0880F991F0A94E2F7809584238C93C9
:1014C0002FC0A4E3B0E0E4E3F0E08081482F8981FD
:1014D000882F90E09C012770307081E090E0022E10
:1014E00002C0880F991F0A94E2F7809584238C9399
:1014F00017C0A1E3B0E0E1E3F0E08081482F8981EB
:10150000882F90E09C012770307081E090E0022EDF
:1015100002C0880F991F0A94E2F7809584238C9368
:1015200026960FB6F894DEBF0FBECDBFCF91DF91E8
:101530000895DF93CF9300D000D000D0CDB7DEB7B1
:1015400089836A838A81813009F07FC08981869589
:1015500086958695282F30E03E832D838D819E8150
:101560008130910569F12D813E81223031052CF4C5
:101570008D819E81009769F0EEC02D813E812230E1
:101580003105A9F18D819E818330910509F446C012
:10159000E2C0ABE3B0E0EBE3F0E08081482F89816B
:1015A000882F90E09C012770307081E090E0022E3F
:1015B00002C0880F991F0A94E2F7842B8C93CBC04A
:1015C000A8E3B0E0E8E3F0E08081482F8981882F2C
:1015D00090E09C012770307081E090E0022E02C004
:1015E000880F991F0A94E2F7842B8C93B4C0A5E36B
:1015F000B0E0E5E3F0E08081482F8981882F90E01A
:101600009C012770307081E090E0022E02C0880FAC
:10161000991F0A94E2F7842B8C939DC0A2E3B0E05B
:10162000E2E3F0E08081482F8981882F90E09C01DF
:101630002770307081E090E0022E02C0880F991F61
:101640000A94E2F7842B8C9386C08A81882309F060
:1016500082C08981869586958695282F30E03C83C7
:101660002B838B819C818130910571F12B813C8191
:10167000223031052CF48B819C81009769F06BC07E
:101680002B813C8122303105B9F18B819C818330E3
:10169000910509F449C05FC0ABE3B0E0EBE3F0E0D3
:1016A0008081482F8981882F90E09C0127703070BD
:1016B00081E090E0022E02C0880F991F0A94E2F7A1
:1016C000809584238C9347C0A8E3B0E0E8E3F0E082
:1016D0008081482F8981882F90E09C01277030708D
:1016E00081E090E0022E02C0880F991F0A94E2F771
:1016F000809584238C932FC0A5E3B0E0E5E3F0E070
:101700008081482F8981882F90E09C01277030705C
:1017100081E090E0022E02C0880F991F0A94E2F740
:10172000809584238C9317C0A2E3B0E0E2E3F0E05D
:101730008081482F8981882F90E09C01277030702C
:1017400081E090E0022E02C0880F991F0A94E2F710
:10175000809584238C9326960FB6F894DEBF0FBE37
:10176000CDBFCF91DF910895DF93CF9300D000D00C
:10177000CDB7DEB789836A838981282F30E03C8327
:101780002B838B819C8181309105D1F02B813C8111
:10179000223031052CF48B819C81009761F01EC0B2
:1017A0002B813C812230310581F08B819C818330FB
:1017B000910581F013C0EBE3F0E08A8180830EC0D5
:1017C000E8E3F0E08A81808309C0E5E3F0E08A8104
:1017D000808304C0E2E3F0E08A8180830F900F9061
:1017E0000F900F90CF91DF910895DF93CF9300D0AA
:1017F00000D0CDB7DEB789836A838981282F30E096
:101800003C832B838B819C8181309105D1F02B818E
:101810003C81223031052CF48B819C81009761F052
:101820001EC02B813C812230310581F08B819C814F
:101830008330910581F013C0EAE3F0E08A81808370
:101840000EC0E7E3F0E08A81808309C0E4E3F0E0C2
:101850008A81808304C0E1E3F0E08A8180830F9075
:101860000F900F900F90CF91DF910895DF93CF935A
:1018700000D000D0CDB7DEB78A8319828A818695E1
:1018800086958695282F30E03C832B834B815C81A5
:101890004130510559F18B819C818230910534F49E
:1018A0002B813C812115310569F05BC04B815C8146
:1018B0004230510579F18B819C818330910509F487
:1018C0003DC04FC0E9E3F0E08081282F30E08A81FD
:1018D000882F90E087709070A90102C055954795B8
:1018E0008A95E2F7CA01817089833BC0E6E3F0E0A4
:1018F0008081282F30E08A81882F90E08770907057
:10190000A90102C0559547958A95E2F7CA018170F1
:10191000898327C0E3E3F0E08081282F30E08A81CB
:10192000882F90E087709070A90102C05595479567
:101930008A95E2F7CA018170898313C0E0E3F0E081
:101940008081282F30E08A81882F90E08770907006
:10195000A90102C0559547958A95E2F7CA018170A1
:10196000898389810F900F900F900F90CF91DF9115
:101970000895DF93CF9300D00F92CDB7DEB7898360
:101980008981869586958695282F30E03B832A832A
:101990008A819B818130910569F12A813B812230C6
:1019A00031052CF48A819B81009769F067C02A81F8
:1019B0003B8122303105A9F18A819B8183309105D9
:1019C00009F446C05BC0ABE3B0E0EBE3F0E080813C
:1019D000482F8981882F90E09C012770307081E02A
:1019E00090E0022E02C0880F991F0A94E2F7842B20
:1019F0008C9344C0A8E3B0E0E8E3F0E08081482F96
:101A00008981882F90E09C012770307081E090E000
:101A1000022E02C0880F991F0A94E2F7842B8C9340
:101A20002DC0A5E3B0E0E5E3F0E08081482F898197
:101A3000882F90E09C012770307081E090E0022EAA
:101A400002C0880F991F0A94E2F7842B8C9316C06A
:101A5000A2E3B0E0E2E3F0E08081482F8981882FA3
:101A600090E09C012770307081E090E0022E02C06F
:101A7000880F991F0A94E2F7842B8C930F900F9094
:101A80000F90CF91DF910895DF93CF9300D00F9205
:101A9000CDB7DEB789838981282F30E03B832A8345
:101AA0008A819B818130910521F12A813B812230FD
:101AB00031052CF48A819B81009761F046C02A8110
:101AC0003B812230310521F18A819B818330910550
:101AD00071F13BC0A7E2B0E0E7E2F0E080818F7BEC
:101AE0008C93A7E2B0E0E7E2F0E080818F778C93FF
:101AF0002CC0A7E2B0E0E7E2F0E0808180648C9344
:101B0000A7E2B0E0E7E2F0E080818F778C931DC020
:101B1000A7E2B0E0E7E2F0E080818F7B8C93A7E260
:101B2000B0E0E7E2F0E0808180688C930EC0A7E22D
:101B3000B0E0E7E2F0E0808180648C93A7E2B0E05F
:101B4000E7E2F0E0808180688C93A6E2B0E0E6E214
:101B5000F0E0808184608C93A6E2B0E0E6E2F0E001
:101B6000808182608C93A6E2B0E0E6E2F0E08081C2
:101B700081608C93A7E2B0E0E7E2F0E080818F7DA6
:101B80008C93A6E2B0E0E6E2F0E080818F7D8C935A
:101B9000A6E2B0E0E6E2F0E0808188608C93A6E205
:101BA000B0E0E6E2F0E0808180688C930F900F90C7
:101BB0000F90CF91DF910895DF93CF930F92CDB720
:101BC000DEB78983A7E2B0E0E7E2F0E08081982FFA
:101BD000907E8981892B8C93A6E2B0E0E6E2F0E06A
:101BE000808180648C930F90CF91DF9108951F9234
:101BF0000F920FB60F9211242F933F934F935F9341
:101C00006F937F938F939F93AF93BF93EF93FF93C4
:101C1000DF93CF93CDB7DEB78091DD009091DE00EA
:101C2000009729F0E091DD00F091DE000995A6E231
:101C3000B0E0E6E2F0E0808180618C93CF91DF91AB
:101C4000FF91EF91BF91AF919F918F917F916F9194
:101C50005F914F913F912F910F900FBE0F901F906A
:101C60001895DF93CF9300D0CDB7DEB79A838983E1
:101C700089819A819093DE008093DD000F900F9010
:101C8000CF91DF910895DF93CF93CDB7DEB76D97F6
:101C90000FB6F894DEBF0FBECDBF8D8FA2E3B0E0CC
:101CA000E2E3F0E08081982F9F708D8D807F892BFB
:101CB0008C938BE061E00E94990A80E090E0A0E8BC
:101CC000BFE3898F9A8FAB8FBC8F698D7A8D8B8D97
:101CD0009C8D20E030E04AE755E40E941F02DC01C1
:101CE000CB018D8B9E8BAF8BB88F6D897E898F8951
:101CF000988D20E030E040E85FE30E94790388237C
:101D00002CF481E090E09C8B8B8B3FC06D897E89A9
:101D10008F89988D20E03FEF4FE757E40E94190329
:101D200018164CF5698D7A8D8B8D9C8D20E030E0F6
:101D300040E251E40E941F02DC01CB01BC01CD0155
:101D40000E944900DC01CB019C8B8B8B0FC080E98A
:101D500091E09A8B898B89899A890197F1F79A8BFF
:101D6000898B8B899C8901979C8B8B8B8B899C8918
:101D7000009769F714C06D897E898F89988D0E94BC
:101D80004900DC01CB019C8B8B8B8B899C89988BC8
:101D90008F878F8598890197F1F7988B8F878BE0D4
:101DA00060E00E94990AA2E3B0E0E2E3F0E0808103
:101DB000282F2F708D8D882F90E082959295907F9F
:101DC0009827807F9827822B8C938BE061E00E947C
:101DD000990A80E090E0A0E8BFE38B879C87AD87FD
:101DE000BE876B857C858D859E8520E030E04AE747
:101DF00055E40E941F02DC01CB018F839887A987DD
:101E0000BA876F81788589859A8520E030E040E83F
:101E10005FE30E94790388232CF481E090E09E83A5
:101E20008D833FC06F81788589859A8520E03FEF5B
:101E30004FE757E40E94190318164CF56B857C8513
:101E40008D859E8520E030E040E251E40E941F0233
:101E5000DC01CB01BC01CD010E944900DC01CB01BA
:101E60009E838D830FC080E991E09C838B838B815F
:101E70009C810197F1F79C838B838D819E810197D3
:101E80009E838D838D819E81009769F714C06F8139
:101E9000788589859A850E944900DC01CB019E8363
:101EA0008D838D819E819A83898389819A8101970F
:101EB000F1F79A8389838BE060E00E94990A6D961E
:101EC0000FB6F894DEBF0FBECDBFCF91DF9108955E
:101ED000DF93CF930F92CDB7DEB7898389E060E0BF
:101EE0000E94990A8AE060E00E94990A89810E9412
:101EF000430E0F90CF91DF910895DF93CF93CDB72D
:101F0000DEB7E8970FB6F894DEBF0FBECDBF8BE00B
:101F100061E00E947E0989E061E00E947E098AE01A
:101F200061E00E947E098CE161E00E947E098DE102
:101F300061E00E947E098EE161E00E947E098FE1EE
:101F400061E00E947E0980E090E0A8E4B2E48DABFD
:101F50009EABAFABB8AF6DA97EA98FA998AD20E0BD
:101F600030E04AE755E40E941F02DC01CB0189AB57
:101F70009AABABABBCAB69A97AA98BA99CA920E0B1
:101F800030E040E85FE30E94790388232CF481E08D
:101F900090E098AB8FA73FC069A97AA98BA99CA9AB
:101FA00020E03FEF4FE757E40E94190318164CF565
:101FB0006DA97EA98FA998AD20E030E040E251E400
:101FC0000E941F02DC01CB01BC01CD010E9449002F
:101FD000DC01CB0198AB8FA70FC080E991E09EA7F1
:101FE0008DA78DA59EA50197F1F79EA78DA78FA51B
:101FF00098A9019798AB8FA78FA598A9009769F723
:1020000014C069A97AA98BA99CA90E944900DC0186
:10201000CB0198AB8FA78FA598A99CA78BA78BA561
:102020009CA50197F1F79CA78BA783E30E94680FFB
:1020300082E30E94680F88E20E94680F80E090E0CF
:10204000A0E8BFE38FA398A7A9A7BAA76FA178A517
:1020500089A59AA520E030E04AE755E40E941F02D6
:10206000DC01CB018BA39CA3ADA3BEA36BA17CA180
:102070008DA19EA120E030E040E85FE30E9479035B
:1020800088232CF481E090E09AA389A33FC06BA140
:102090007CA18DA19EA120E03FEF4FE757E40E9475
:1020A000190318164CF56FA178A589A59AA520E00B
:1020B00030E040E251E40E941F02DC01CB01BC0190
:1020C000CD010E944900DC01CB019AA389A30FC076
:1020D00080E991E098A38F8F8F8D98A10197F1F7F8
:1020E00098A38F8F89A19AA101979AA389A389A107
:1020F0009AA1009769F714C06BA17CA18DA19EA144
:102100000E944900DC01CB019AA389A389A19AA16D
:102110009E8F8D8F8D8D9E8D0197F1F79E8F8D8F68
:102120008FE00E94680F80E090E0A0E8BFE3898F15
:102130009A8FAB8FBC8F698D7A8D8B8D9C8D20E0B3
:1021400030E04AE755E40E941F02DC01CB018D8B91
:102150009E8BAF8BB88F6D897E898F89988D20E09B
:1021600030E040E85FE30E94790388232CF481E0AB
:1021700090E09C8B8B8B3FC06D897E898F89988D79
:1021800020E03FEF4FE757E40E94190318164CF583
:10219000698D7A8D8B8D9C8D20E030E040E251E49A
:1021A0000E941F02DC01CB01BC01CD010E9449004D
:1021B000DC01CB019C8B8B8B0FC080E991E09A8B6B
:1021C000898B89899A890197F1F79A8B898B8B89F9
:1021D0009C8901979C8B8B8B8B899C89009769F7D5
:1021E00014C06D897E898F89988D0E944900DC0119
:1021F000CB019C8B8B8B8B899C89988B8F878F8550
:1022000098890197F1F7988B8F8781E00E94680F7A
:1022100080E090E0A0E0B0E48B879C87AD87BE872C
:102220006B857C858D859E8520E030E04AE755E40E
:102230000E941F02DC01CB018F839887A987BA8790
:102240006F81788589859A8520E030E040E85FE3FA
:102250000E94790388232CF481E090E09E838D8393
:102260003FC06F81788589859A8520E03FEF4FE7F1
:1022700057E40E94190318164CF56B857C858D85F3
:102280009E8520E030E040E251E40E941F02DC0124
:10229000CB01BC01CD010E944900DC01CB019E8332
:1022A0008D830FC080E991E09C838B838B819C811F
:1022B0000197F1F79C838B838D819E8101979E838B
:1022C0008D838D819E81009769F714C06F81788519
:1022D00089859A850E944900DC01CB019E838D830C
:1022E0008D819E819A83898389819A810197F1F7F3
:1022F0009A83898386E00E94680FE8960FB6F89467
:10230000DEBF0FBECDBFCF91DF910895DF93CF9396
:102310000F92CDB7DEB7898389E061E00E94990A08
:102320008AE060E00E94990A89810E94430E0F9022
:10233000CF91DF910895DF93CF93CDB7DEB761974B
:102340000FB6F894DEBF0FBECDBF998B888B1F866A
:1023500080C08F85282F30E088899989FC01E20FA1
:10236000F31F80810E94861180E090E0A8ECB2E427
:102370008B879C87AD87BE876B857C858D859E8589
:1023800020E030E04AE755E40E941F02DC01CB0167
:102390008F839887A987BA876F81788589859A8581
:1023A00020E030E040E85FE30E94790388232CF4CA
:1023B00081E090E09E838D833FC06F817885898521
:1023C0009A8520E03FEF4FE757E40E941903181663
:1023D0004CF56B857C858D859E8520E030E040E264
:1023E00051E40E941F02DC01CB01BC01CD010E941F
:1023F0004900DC01CB019E838D830FC080E991E011
:102400009C838B838B819C810197F1F79C838B83C9
:102410008D819E8101979E838D838D819E81009702
:1024200069F714C06F81788589859A850E94490073
:10243000DC01CB019E838D838D819E819A8389836C
:1024400089819A810197F1F79A8389838F858F5FBC
:102450008F878F85282F30E088899989FC01E20FCA
:10246000F31F8081882309F074CF61960FB6F8942A
:10247000DEBF0FBECDBFCF91DF910895EF92FF92E7
:102480000F931F93DF93CF93CDB7DEB72E970FB681
:10249000F894DEBF0FBECDBF6B877C878D879E878C
:1024A0008B859C85AD85BE858F839887A987BA87E4
:1024B0001A82198215C089818F5F89838F819885DF
:1024C000A985BA852AE030E040E050E0BC01CD01AA
:1024D0000E94011BDA01C9018F839887A987BA87F7
:1024E0008F819885A985BA850097A105B10519F74F
:1024F00036C08B819C81AD81BE812AE030E040E016
:1025000050E0BC01CD010E94CF1A7B018C018B856C
:102510009C85AD85BE852AE030E040E050E0BC01FE
:10252000CD010E94011BDC01CB018E0D9F1DA01F60
:10253000B11F8B839C83AD83BE838B859C85AD85CA
:10254000BE852AE030E040E050E0BC01CD010E94B1
:10255000011BDA01C9018B879C87AD87BE878B85FC
:102560009C85AD85BE850097A105B10511F628C0F3
:102570008B819C81AD81BE812AE030E040E050E05B
:10258000BC01CD010E94011BDC01CB018A838B8140
:102590009C81AD81BE812AE030E040E050E0BC018A
:1025A000CD010E94011BDA01C9018B839C83AD839D
:1025B000BE838A81805D0E948611898181508983D2
:1025C00089818823A9F62E960FB6F894DEBF0FBE38
:1025D000CDBFCF91DF911F910F91FF90EF900895A4
:1025E000DF93CF93CDB7DEB781E00E94680FCF9124
:1025F000DF910895DF93CF9300D0CDB7DEB7898305
:102600006A838981813029F48A8180580E94680F09
:1026100007C08981823021F48A8180540E94680F2A
:102620000F900F90CF91DF910895DF93CF930F928A
:10263000CDB7DEB780E40E94680F19820CC0898193
:10264000882F90E0FC01ED53FF4F80810E9486119E
:1026500089818F5F89838981883088F381E062E096
:102660000E94FA120F90CF91DF910895DF93CF93DC
:1026700000D0CDB7DEB79A8389830E94F01289819A
:102680009A810E949B110F900F90CF91DF91089536
:10269000DF93CF93CDB7DEB762970FB6F894DEBF66
:1026A0000FBECDBF998B888B6A8B88899989892FBA
:1026B000992780658F870E944C060E9473068F853C
:1026C0000E94A30588890E94CF058A890E94CF05B0
:1026D0000E94A00680E090E0A0EAB0E48B879C878F
:1026E000AD87BE876B857C858D859E8520E030E03B
:1026F0004AE755E40E941F02DC01CB018F839887D3
:10270000A987BA876F81788589859A8520E030E02E
:1027100040E85FE30E94790388232CF481E090E095
:102720009E838D833FC06F81788589859A8520E05F
:102730003FEF4FE757E40E94190318164CF56B85DD
:102740007C858D859E8520E030E040E251E40E944A
:102750001F02DC01CB01BC01CD010E944900DC015C
:10276000CB019E838D830FC080E991E09C838B8396
:102770008B819C810197F1F79C838B838D819E8156
:1027800001979E838D838D819E81009769F714C088
:102790006F81788589859A850E944900DC01CB018B
:1027A0009E838D838D819E819A83898389819A817D
:1027B0000197F1F79A83898362960FB6F894DEBF8A
:1027C0000FBECDBFCF91DF910895DF93CF93CDB7EB
:1027D000DEB7A1970FB6F894DEBF0FBECDBF9F8FB7
:1027E0008E8F79A368A393C08E8D9F8D892F992793
:1027F00080658D8F0E944C060E9473068D8D0E940D
:10280000A3058E8D0E94CF05E8A1F9A180810E94C9
:10281000CF050E94A00680E090E0A0EAB0E4898F96
:102820009A8FAB8FBC8F698D7A8D8B8D9C8D20E0BC
:1028300030E04AE755E40E941F02DC01CB018D8B9A
:102840009E8BAF8BB88F6D897E898F89988D20E0A4
:1028500030E040E85FE30E94790388232CF481E0B4
:1028600090E09C8B8B8B3FC06D897E898F89988D82
:1028700020E03FEF4FE757E40E94190318164CF58C
:10288000698D7A8D8B8D9C8D20E030E040E251E4A3
:102890000E941F02DC01CB01BC01CD010E94490056
:1028A000DC01CB019C8B8B8B0FC080E991E09A8B74
:1028B000898B89899A890197F1F79A8B898B8B8902
:1028C0009C8901979C8B8B8B8B899C89009769F7DE
:1028D00014C06D897E898F89988D0E944900DC0122
:1028E000CB019C8B8B8B8B899C89988B8F878F8559
:1028F00098890197F1F7988B8F8788A199A1019604
:1029000099A388A38E8D9F8D01969F8F8E8FE8A1AE
:10291000F9A18081882309F067CF80E090E0A0EAE8
:10292000B0E48B879C87AD87BE876B857C858D8562
:102930009E8520E030E04AE755E40E941F02DC015A
:10294000CB018F839887A987BA876F81788589851E
:102950009A8520E030E040E85FE30E947903882315
:102960002CF481E090E09E838D833FC06F81788559
:1029700089859A8520E03FEF4FE757E40E941903CD
:1029800018164CF56B857C858D859E8520E030E0A2
:1029900040E251E40E941F02DC01CB01BC01CD01E9
:1029A0000E944900DC01CB019E838D830FC080E92A
:1029B00091E09C838B838B819C810197F1F79C83B1
:1029C0008B838D819E8101979E838D838D819E81D6
:1029D000009769F714C06F81788589859A850E9470
:1029E0004900DC01CB019E838D838D819E819A837A
:1029F000898389819A810197F1F79A838983A196C6
:102A00000FB6F894DEBF0FBECDBFCF91DF91089512
:102A1000DF93CF9300D000D0CDB7DEB79C838B83FC
:102A20008B819C81892F992780658A830E944C061F
:102A30000E9473068A810E94A3058B810E94CF05A4
:102A40000E94E9058A810E9403060E942F0689835D
:102A50000E94A00689810F900F900F900F90CF9148
:102A6000DF9108950F931F93DF93CF93CDB7DEB718
:102A700067970FB6F894DEBF0FBECDBF9B8B8A8BD6
:102A80007D8B6C8B5F8B4E8B8A899B89892F9927D5
:102A90008065898B0E944C06188A1F8694C00E940C
:102AA000730689890E94A3058A890E94CF050E9426
:102AB000E90589890E9403062C893D898F859889BB
:102AC0008901080F191F0E942F06F801808380E0FA
:102AD00090E0A0EAB0E48B879C87AD87BE876B85CA
:102AE0007C858D859E8520E030E04AE755E40E9494
:102AF0001F02DC01CB018F839887A987BA876F817A
:102B0000788589859A8520E030E040E85FE30E947F
:102B1000790388232CF481E090E09E838D833FC06D
:102B20006F81788589859A8520E03FEF4FE757E4EC
:102B30000E94190318164CF56B857C858D859E8542
:102B400020E030E040E251E40E941F02DC01CB01B2
:102B5000BC01CD010E944900DC01CB019E838D8325
:102B60000FC080E991E09C838B838B819C810197CE
:102B7000F1F79C838B838D819E8101979E838D834A
:102B80008D819E81009769F714C06F817885898552
:102B90009A850E944900DC01CB019E838D838D8143
:102BA0009E819A83898389819A810197F1F79A831B
:102BB00089838A899B8901969B8B8A8B8F859889CB
:102BC0000196988B8F872F8538898E899F89281742
:102BD000390708F464CF0E94A0068C899D892E894C
:102BE0003F89FC01E20FF31F108267960FB6F8943D
:102BF000DEBF0FBECDBFCF91DF911F910F91089522
:102C0000DF93CF93CDB7DEB78091E900482F50E036
:102C1000E4E2F0E08081282F30E0E5E2F0E080811E
:102C2000882F90E0982F8827820F931F9C01CA015C
:102C3000880F991FFC01E152FF4F3183208380915F
:102C4000E9008F5F8093E9008091E900853010F002
:102C50001092E900A7E2B0E0E7E2F0E08081282FDF
:102C6000207E8091E900882F90E0FC01E254FF4F24
:102C70008081822B8C93A6E2B0E0E6E2F0E08081D6
:102C800080648C93CF91DF910895DF93CF93CDB77C
:102C9000DEB7C35FD0400FB6F894DEBF0FBECDBF26
:102CA00081E061E00E94F50B0E947D0F80E060E012
:102CB0000E947E0981E060E00E947E0982E060E07F
:102CC0000E947E0983E060E00E947E0984E060E06B
:102CD0000E947E0983E06FEF0E94F50B83E00E9463
:102CE000440D80E096E10E94310E0E9462098091BD
:102CF000E900882F90E0FC01E254FF4F8081882F8B
:102D000090E00E94DC0D1F86188A198A1A8A8CE0CE
:102D1000FE017396DF01282F1D922A95E9F7CE0157
:102D20004F96C552DF4F99838883CB5DD040A0E694
:102D3000B0E0C352DF4FB983A883CD5DD040B1E18D
:102D4000C152DF4FB883CF5DD040C352DF4FE8811F
:102D5000F981CD5DD0400080C352DF4F88819981D9
:102D6000CD5DD0400196C352DF4F99838883CD5DFE
:102D7000D040C552DF4FA881B981CB5DD0400C92C5
:102D8000C552DF4FE881F981CB5DD0403196C55205
:102D9000DF4FF983E883CB5DD040C152DF4FF8812C
:102DA000CF5DD040F150C152DF4FF883CF5DD040AE
:102DB000C152DF4F2881CF5DD040222331F6CE01B2
:102DC000C096C052DF4F99838883C05ED040A1E790
:102DD000B0E0CE51DF4FB983A883C25ED040BBE0E4
:102DE000CC51DF4FB883C45ED040CE51DF4FE88175
:102DF000F981C25ED0400080CE51DF4F8881998139
:102E0000C25ED0400196CE51DF4F99838883C25E67
:102E1000D040C052DF4FA881B981C05ED0400C9233
:102E2000C052DF4FE881F981C05ED0403196C05278
:102E3000DF4FF983E883C05ED040CC51DF4FF8818B
:102E4000C45ED040F150CC51DF4FF883C45ED04017
:102E5000CC51DF4F2881C45ED040222331F6CE0111
:102E6000CB96CB51DF4F99838883C55ED040ACE7CA
:102E7000B0E0C951DF4FB983A883C75ED040B2E14B
:102E8000C751DF4FB883C95ED040C951DF4FE881D9
:102E9000F981C75ED0400080C951DF4F8881998198
:102EA000C75ED0400196C951DF4F99838883C75EC2
:102EB000D040CB51DF4FA881B981C55ED0400C9284
:102EC000CB51DF4FE881F981C55ED0403196CB51BF
:102ED000DF4FF983E883C55ED040C751DF4FF881EB
:102EE000C95ED040F150C751DF4FF883C95ED04072
:102EF000C751DF4F2881C95ED040222331F6CE0171
:102F0000835B9F4FC651DF4F99838883CA5ED04051
:102F10008EE890E0C451DF4F99838883CC5ED04027
:102F200099E0C251DF4F9883CE5ED040C451DF4F4D
:102F3000A881B981CC5ED0400C90C451DF4FE881AC
:102F4000F981CC5ED0403196C451DF4FF983E883DC
:102F5000CC5ED040C651DF4FA881B981CA5ED04057
:102F60000C92C651DF4FE881F981CA5ED04031969C
:102F7000C651DF4FF983E883CA5ED040C251DF4FAC
:102F8000F881CE5ED040F150C251DF4FF883CE5E63
:102F9000D040C251DF4F2881CE5ED040222331F68F
:102FA000CE018A5A9F4FC151DF4F99838883CF5EEC
:102FB000D04087E990E0CF50DF4F99838883C15F8D
:102FC000D04091E1CD50DF4F9883C35FD040CF50C8
:102FD000DF4FA881B981C15FD0400C90CF50DF4F47
:102FE000E881F981C15FD0403196CF50DF4FF9833E
:102FF000E883C15FD040C151DF4FA881B981CF5E66
:10300000D0400C92C151DF4FE881F981CF5ED040B2
:103010003196C151DF4FF983E883CF5ED040CD5068
:10302000DF4FF881C35FD040F150CD50DF4FF883C0
:10303000C35FD040CD50DF4F2881C35FD0402223F3
:1030400031F6FE01E959FF4F8091A8009091A90047
:10305000A091AA00B091AB0080839183A283B38337
:10306000FE01E559FF4F10821182128213828CE01B
:103070003496DF01282F1D922A95E9F7FE01E558C5
:10308000FF4F10821182128213828CE03496DF018E
:10309000282F1D922A95E9F7FE01E557FF4F108270
:1030A0001182128213828CE03496DF01282F1D9248
:1030B0002A95E9F7FE01E556FF4F10821182128230
:1030C00013828CE03496DF01282F1D922A95E9F7B0
:1030D000FE01E555FF4F10821182128213828CE0AF
:1030E0003496DF01282F1D922A95E9F7FE01E55459
:1030F000FF4F10821182128213828CE03496DF011E
:10310000282F1D922A95E9F79E01215E3F4F80E00E
:1031100090E0B9010E94E5139E01205D3F4F84E1DC
:1031200090E0B9010E94E5139E01255C3F4F88E2C3
:1031300090E0B9010E94E5139E01235B3F4F8CE3B1
:1031400090E0B9010E94E5139E012A5A3F4F80E5A5
:1031500090E0B9010E94E5139E0129593F4F84E692
:1031600090E0B9010E94E51380E090E0A8ECB2E4A1
:103170008B879C87AD87BE876B857C858D859E857B
:1031800020E030E04AE755E40E941F02DC01CB0159
:103190008F839887A987BA876F81788589859A8573
:1031A00020E030E040E85FE30E94790388232CF4BC
:1031B00081E090E09E838D833FC06F817885898513
:1031C0009A8520E03FEF4FE757E40E941903181655
:1031D0004CF56B857C858D859E8520E030E040E256
:1031E00051E40E941F02DC01CB01BC01CD010E9411
:1031F0004900DC01CB019E838D830FC080E991E003
:103200009C838B838B819C810197F1F79C838B83BB
:103210008D819E8101979E838D838D819E810097F4
:1032200069F714C06F81788589859A850E94490065
:10323000DC01CB019E838D838D819E819A8389835E
:1032400089819A810197F1F79A8389839E01255993
:103250003F4F80E090E0B90141E150E00E9432151B
:103260009E0125593F4F84E190E0B9014BE050E0C9
:103270000E9432159E0125593F4F88E290E0B90126
:1032800042E150E00E9432159E0125593F4F8CE3E8
:1032900090E0B90149E050E00E9432159E012559A5
:1032A0003F4F80E590E0B90141E150E00E943215C6
:1032B0009E0125593F4F84E690E0B90144E050E07B
:1032C0000E943215FE01E559FF4F108AFE01E558B4
:1032D000FF4F1286FE01E557FF4F118AFE01E556AA
:1032E000FF4F1086FE01E555FF4F108AFE01E554A1
:1032F000FF4F1382FE01E553FF4F108211821282AD
:1033000013828CE03496DF01282F1D922A95E9F76D
:103310008091DF009091E000A3E086349A0750F19D
:103320008091E3009091E400B3E086349B0710F1B4
:103330008091E5009091E600E3E086349E07D0F0AE
:103340008091E7009091E800F3E085349F0790F4C6
:103350008091E1009091E20023E08534920750F4DF
:10336000CE0185539F4F9E0125593F4FB9010E94C1
:10337000921BFCC08091E3009091E400A3E08634AE
:103380009A0750F18091E5009091E600B3E0863411
:103390009B0710F18091DF009091E000E3E085341D
:1033A0009E07D0F48091E1009091E200F3E0853433
:1033B0009F0790F48091E7009091E80023E0853426
:1033C000920750F4CE0185539F4F9E0125583F4FE1
:1033D000B9010E94921BCAC08091E5009091E6005D
:1033E000A3E086349A0750F18091DF009091E000CD
:1033F000B3E085349B0710F58091E1009091E200E5
:10340000E3E085349E07D0F48091E3009091E400DE
:10341000F3E085349F0790F48091E7009091E800F5
:1034200023E08534920750F4CE0185539F4F9E01CF
:1034300025573F4FB9010E94921B98C08091E1002F
:103440009091E200A3E086349A0750F18091E30066
:103450009091E400B3E086349B0710F18091E50081
:103460009091E600E3E086349E07D0F08091E7007B
:103470009091E800F3E086349F0790F08091DF00A0
:103480009091E00023E08534920750F4CE018553FB
:103490009F4F9E0125563F4FB9010E94921B66C067
:1034A0008091DF009091E000A3E086349A0750F10C
:1034B0008091E5009091E600B3E086349B0710F11F
:1034C0008091E7009091E800E3E086349E07D0F019
:1034D0008091E3009091E400F3E085349F0790F43D
:1034E0008091E1009091E20023E08534920750F44E
:1034F000CE0185539F4F9E0125553F4FB9010E9434
:10350000921B34C08091DF009091E000A3E08634EC
:103510009A0750F18091E5009091E600B3E086347F
:103520009B0710F18091E7009091E800E3E086347A
:103530009E07D0F08091E3009091E400F3E08634A0
:103540009F0790F08091E1009091E20023E08534A4
:10355000920750F4CE0185539F4F9E0125543F4F53
:10356000B9010E94921B02C00E94F012CE010F9678
:103570009E0125533F4FB9010E94891B009709F412
:10358000B9CECE0185539F4F0E943613CE010F96C0
:103590009E0125533F4FB9010E94921BABCE629F03
:1035A000D001739FF001829FE00DF11D649FE00D3B
:1035B000F11D929FF00D839FF00D749FF00D659F9C
:1035C000F00D9927729FB00DE11DF91F639FB00D9B
:1035D000E11DF91FBD01CF011124089597FB092EAC
:1035E00007260AD077FD04D049D006D000201AF46F
:1035F000709561957F4F0895F6F7909581959F4F4F
:103600000895A1E21A2EAA1BBB1BFD010DC0AA1F23
:10361000BB1FEE1FFF1FA217B307E407F50720F03B
:10362000A21BB30BE40BF50B661F771F881F991FB6
:103630001A9469F760957095809590959B01AC01FF
:10364000BD01CF01089597FB092E05260ED057FD29
:1036500004D0D7DF0AD0001C38F45095409530953F
:1036600021953F4F4F4F5F4F0895F6F79095809506
:10367000709561957F4F8F4F9F4F0895AA1BBB1B7D
:1036800051E107C0AA1FBB1FA617B70710F0A61B62
:10369000B70B881F991F5A95A9F780959095BC0183
:1036A000CD0108952F923F924F925F926F927F9239
:1036B0008F929F92AF92BF92CF92DF92EF92FF9242
:1036C0000F931F93CF93DF93CDB7DEB7CA1BDB0BEE
:1036D0000FB6F894DEBF0FBECDBF09942A88398893
:1036E00048885F846E847D848C849B84AA84B9849A
:1036F000C884DF80EE80FD800C811B81AA81B981A6
:10370000CE0FD11D0FB6F894DEBF0FBECDBFED01B9
:103710000895FB01DC018D91019080190110D9F30E
:10372000990B0895FB01DC0101900D920020E1F757
:063730000895F894FFCF9C
:1037360054686973206973207465727269626C6576
:103746000049204C6F766520596F750049205265F7
:10375600616C6C79204C6F766520596F7500476FE8
:103766006F64204A6F620049276D20776174636831
:10377600696E6720796F7500596F7500000000004B
:1037860000000000010008004000000100040001E4
:0C379600020304000A1F1F0E04000000C4
:00000001FF
