:100000000C942A000C94690F0C949C0F0C94CF0F45
:100010000C9447000C9447000C9447000C94470044
:100020000C9447000C9447000C94730D0C940A0D2B
:100030000C9447000C9447000C9447000C94470024
:100040000C948A150C9447000C9447000C944700BC
:100050000C94470011241FBECFE5D8E0DEBFCDBF12
:1000600011E0A0E6B0E0E6E0FDE402C005900D92EC
:10007000AA3EB107D9F712E0AAEEB1E001C01D9285
:10008000A939B107E1F70E94B1210C9481260C94A3
:100090000000EF92FF920F931F937B018C0120E0F1
:1000A00030E040E05FE40E94F50388238CF0C80153
:1000B000B70120E030E040E05FE40E94C1010E940F
:1000C00055049B01AC01205030404040504806C0D0
:1000D000C801B7010E9455049B01AC01B901CA01D6
:1000E0001F910F91FF90EF900895A0E0B0E0EBE733
:1000F000F0E00C943A26DC012B01FA019C9192303D
:1001000008F439C1EB018881823008F433C194309E
:1001100069F4843009F02FC111969C91119789815F
:10012000981709F428C1ACEAB0E025C1843009F47D
:1001300021C18230A9F4923009F01DC19A01AD01AC
:1001400088E0EA010990AE01E90109929E0181501F
:10015000C1F7E201898111969C918923818308C1AD
:10016000923009F407C112962D903C901397EB0141
:100170008A819B811496AD90BD90CD90DC901797AD
:10018000EC80FD800E811F819101281B390BB90184
:1001900037FF04C066277727621B730B6032710537
:1001A0000CF061C0121613066CF537014801062EDB
:1001B00004C096948794779467940A94D2F721E0C8
:1001C00030E040E050E004C0220F331F441F551FB1
:1001D0006A95D2F721503040404050402E213F21B7
:1001E00040235123211531054105510521F021E01E
:1001F00030E040E050E079018A01E628F72808293C
:1002000019293CC0232BD1F1260E371E350146019A
:10021000062E04C096948794779467940A94D2F734
:1002200021E030E040E050E004C0220F331F441FC3
:10023000551F6A95D2F721503040404050402A2146
:100240003B214C215D21211531054105510521F04E
:1002500021E030E040E050E059016A01A628B728CB
:10026000C828D9280BC0821593052CF01C01AA249C
:10027000BB24650103C0EE24FF24870111969C91E5
:10028000D20111968C91981709F445C0992339F041
:10029000A80197012A193B094C095D0906C0A6016E
:1002A00095012E193F09400B510B57FD08C01182D3
:1002B0003382228224833583468357831DC081E0A5
:1002C00081833382228288279927DC01821B930B4A
:1002D000A40BB50B84839583A683B7830DC0220F2F
:1002E000331F441F551F24833583468357838281E0
:1002F000938101979383828324813581468157813D
:10030000DA01C9010197A109B1098F5F9F4FAF4F72
:10031000BF4328F30BC0918333822282EA0CFB1C7B
:100320000C1D1D1DE482F5820683178383E0808304
:10033000248135814681578157FF1AC0C901AA27F8
:1003400097FDA095BA2F81709070A070B0705695EF
:10035000479537952795822B932BA42BB52B848318
:100360009583A683B7838281938101969383828349
:10037000DF0101C0D201CD01CDB7DEB7E2E10C94BF
:100380005626A0E2B0E0E7ECF1E00C944626698343
:100390007A838B839C832D833E834F835887E9E048
:1003A000EE2EF12CEC0EFD1ECE010196B7010E943F
:1003B00046068E010F5E1F4FCE010596B8010E94C2
:1003C00046068A8991E089278A8BC701B801AE0168
:1003D000475E5F4F0E9475000E947105A096E6E09F
:1003E0000C946226A0E2B0E0E8EFF1E00C9446261F
:1003F00069837A838B839C832D833E834F835887C5
:10040000F9E0EF2EF12CEC0EFD1ECE010196B701A6
:100410000E9446068E010F5E1F4FCE010596B80161
:100420000E944606C701B801AE01475E5F4F0E94B9
:1004300075000E947105A096E6E00C946226A0E289
:10044000B0E0E5E2F2E00C943A2669837A838B838C
:100450009C832D833E834F835887CE010196BE0136
:10046000675F7F4F0E944606CE010596BE016F5E14
:100470007F4F0E9446069985923088F089898230A4
:10048000C8F0943019F4823051F404C0843029F457
:10049000923081F48CEA90E0C6C0923049F420E0BA
:1004A0009A858A89981321E02A87CE010996BBC0D4
:1004B000823049F420E09A858A89981321E02A8BBA
:1004C000CE014196B0C02D843E844F8458886D88FB
:1004D0007E888F88988CEE24FF248701AA24BB2471
:1004E000650140E050E060E070E0E0E0F0E0C10174
:1004F00081709070892BE9F0E60CF71C081D191D1E
:100500009A01AB012A0D3B1D4C1D5D1D80E090E062
:10051000A0E0B0E0E614F7040805190520F481E036
:1005200090E0A0E0B0E0BA01A901480F591F6A1F8E
:100530007B1FAA0CBB1CCC1CDD1C97FE08C081E0F5
:1005400090E0A0E0B0E0A82AB92ACA2ADB2A3196B6
:10055000E032F10549F0660C771C881C991C569412
:10056000479437942794C3CFFA85EA892B893C892D
:100570008B859C85280F391F2E5F3F4F17C0CA01FE
:1005800081709070892B61F016950795F794E79428
:1005900080E090E0A0E0B0E8E82AF92A0A2B1B2BC3
:1005A00076956795579547952F5F3F4F77FDE7CF36
:1005B0000CC0440F551F661F771F17FD4160EE0CDE
:1005C000FF1C001F111F21503040403090E05907A0
:1005D00090E0690790E4790760F32B8F3C8FDB0193
:1005E000CA018F779070A070B07080349105A1051A
:1005F000B10561F447FD0AC0E114F10401051105DC
:1006000029F0405C5F4F6F4F7F4F40781A8EFE1786
:1006100011F081E08A8F4D8F5E8F6F8F78A383E01A
:10062000898FCE0149960E947105A096E2E10C9453
:100630005626A8E1B0E0EFE1F3E00C94422669838E
:100640007A838B839C832D833E834F835887B9E0C5
:10065000EB2EF12CEC0EFD1ECE010196B7010E948F
:1006600046068E010F5E1F4FCE010596B8010E940F
:1006700046062985223008F47EC03989323010F4CC
:10068000B8017CC08A859A8989278A87243011F02D
:10069000223031F4231709F06EC06CEA70E06EC0AE
:1006A000343039F41D861E861F86188A1C861B86E8
:1006B00004C0323021F484E08987B7015FC02B8504
:1006C0003C858B899C89281B390B3C872B87ED84C3
:1006D000FE840F851889AD88BE88CF88D88CEA142F
:1006E000FB040C051D0540F4EE0CFF1C001F111F40
:1006F000215030403C872B8720E030E040E050E044
:1007000080E090E0A0E0B0E460E070E0EA14FB0478
:100710000C051D0540F0282B392B4A2B5B2BEA18C2
:10072000FB080C091D09B695A79597958795EE0CC2
:10073000FF1C001F111F6F5F7F4F6F31710531F775
:10074000DA01C9018F779070A070B0708034910584
:10075000A105B10561F427FD0AC0E114F10401050A
:10076000110529F0205C3F4F4F4F5F4F20782D87B8
:100770003E874F87588BBE01675F7F4FCB010E943A
:1007800071056896EAE00C945E26A8E1B0E0EBEC17
:10079000F3E00C94462669837A838B839C832D83B4
:1007A0003E834F83588789E0E82EF12CEC0EFD1E26
:1007B000CE010196B7010E9446068E010F5E1F4FC3
:1007C000CE010596B8010E9446068985823040F028
:1007D0008989823028F0C701B8010E94BE0601C095
:1007E0008FEF6896E6E00C946226A8E1B0E0EBEFAC
:1007F000F3E00C94462669837A838B839C832D8354
:100800003E834F83588789E0E82EF12CEC0EFD1EC5
:10081000CE010196B7010E9446068E010F5E1F4F62
:10082000CE010596B8010E9446068985823040F0C7
:100830008989823028F0C701B8010E94BE0601C034
:100840008FEF6896E6E00C946226A8E1B0E0EBE258
:10085000F4E00C94462669837A838B839C832D83F2
:100860003E834F83588789E0E82EF12CEC0EFD1E65
:10087000CE010196B7010E9446068E010F5E1F4F02
:10088000CE010596B8010E9446068985823040F067
:100890008989823028F0C701B8010E94BE0601C0D4
:1008A00081E06896E6E00C946226ACE0B0E0EBE50F
:1008B000F4E00C944A2669837A838B839C83CE016F
:1008C0000196BE016B5F7F4F0E9446068D8182308C
:1008D00061F1823050F1843021F48E81882351F10E
:1008E0002EC02F81388537FD20C06E812F31310514
:1008F0001CF06623F9F023C08EE190E0821B930B7D
:1009000029853A854B855C8504C056954795379572
:1009100027958A95D2F76623B1F05095409530958A
:1009200021953F4F4F4F5F4F0EC020E030E040E039
:1009300050E009C02FEF3FEF4FEF5FE704C020E02A
:1009400030E040E050E8B901CA012C96E2E00C9496
:100950006626A8E0B0E0EFEAF4E00C9442267B01C2
:100960008C01611571058105910519F482E0898377
:1009700060C083E089838EE1C82ED12CDC82CB82DB
:10098000ED82FE820F831887C801B7010E942205FD
:10099000FC013197F7FF3BC0222733272E1B3F0B6B
:1009A00057016801022E04C0D694C794B794A79447
:1009B0000A94D2F740E050E060E070E081E090E01F
:1009C000A0E0B0E004C0880F991FAA1FBB1F2A95A2
:1009D000D2F70197A109B1098E219F21A023B1234C
:1009E0000097A105B10521F041E050E060E070E022
:1009F0004A295B296C297D294D835E836F83788723
:100A00008EE190E08E1B9F0B9C838B8312C03097EE
:100A100081F00E2E04C0EE0CFF1C001F111F0A9463
:100A2000D2F7ED82FE820F831887CE1ADF0ADC82AE
:100A3000CB821A82CE0101960E9471052896EAE0C7
:100A40000C945E26EF92FF920F931F937B018C0113
:100A500080E0E81680E0F80681E0080780E01807EB
:100A600088F48FEFE816F1040105110531F028F044
:100A700088E090E0A0E0B0E017C080E090E0A0E067
:100A8000B0E012C080E0E81680E0F80680E00807D9
:100A900081E0180728F088E190E0A0E0B0E004C011
:100AA00080E190E0A0E0B0E020E230E040E050E003
:100AB000281B390B4A0B5B0B04C016950795F7945E
:100AC000E7948A95D2F7F701EC54FF4F8081281BF9
:100AD000310941095109C9011F910F91FF90EF9010
:100AE0000895DF92EF92FF920F931F93FC01E48031
:100AF000F58006811781D1808081823048F480E0C2
:100B000090E0A0E1B0E0E82AF92A0A2B1B2BA5C04F
:100B1000843009F49FC0823021F4EE24FF24870141
:100B200005C0E114F1040105110519F4E0E0F0E05D
:100B300096C0628173819FEF623879070CF05BC0C9
:100B400022E83FEF261B370B2A3131052CF020E03D
:100B500030E040E050E02AC0B801A701022E04C0F6
:100B600076956795579547950A94D2F781E090E07E
:100B7000A0E0B0E004C0880F991FAA1FBB1F2A95F0
:100B8000D2F70197A109B1098E219F21A023B1239A
:100B90000097A105B10521F081E090E0A0E0B0E070
:100BA0009A01AB01282B392B4A2B5B2BDA01C901A7
:100BB0008F779070A070B07080349105A105B10559
:100BC00039F427FF09C0205C3F4F4F4F5F4F04C0EF
:100BD000215C3F4F4F4F5F4FE0E0F0E02030A0E05E
:100BE0003A07A0E04A07A0E45A0710F0E1E0F0E07D
:100BF00079018A0127C06038710564F5FB01E1586D
:100C0000FF4FD801C7018F779070A070B07080340B
:100C10009105A105B10539F4E7FE0DC080E490E02F
:100C2000A0E0B0E004C08FE390E0A0E0B0E0E80E08
:100C3000F91E0A1F1B1F17FF05C016950795F7948D
:100C4000E794319687E016950795F794E7948A958F
:100C5000D1F705C0EE24FF248701EFEFF0E06E2FFF
:100C6000679566276795902F9F77D794DD24D79453
:100C70008E2F8695492F462B582F5D29B701CA0123
:100C80001F910F91FF90EF90DF900895FC01DB0121
:100C9000408151812281622F6F7770E0221F2227CD
:100CA000221F9381892F880F822B282F30E0991FD4
:100CB0009927991F11969C93119721153105A9F534
:100CC000411551056105710511F482E037C082E8D4
:100CD0009FEF13969C938E9312979A01AB0167E056
:100CE000220F331F441F551F6A95D1F783E08C9361
:100CF0000DC0220F331F441F551F12968D919C91DA
:100D00001397019713969C938E931297203080E04F
:100D1000380780E0480780E4580758F314962D936D
:100D20003D934D935C93179708952F3F310579F4C8
:100D3000411551056105710519F484E08C930895FE
:100D400064FF03C081E08C9312C01C9210C02F5727
:100D5000304013963C932E93129783E08C9387E058
:100D6000440F551F661F771F8A95D1F7706414963C
:100D70004D935D936D937C93179708951F93DC01BA
:100D8000FB019C91923008F447C08081823008F4C6
:100D900043C0943051F411961C91843099F58181AF
:100DA000682F70E0611B71093FC0843021F09230E0
:100DB00031F48230B9F18181882389F12DC01196F7
:100DC0001C9111978230F1F081811817D9F4129695
:100DD0002D913C911397828193818217930794F010
:100DE00028173907BCF014968D919D910D90BC91F8
:100DF000A02D2481358146815781281739074A075C
:100E00005B0718F4112341F00AC082179307A40767
:100E1000B50740F4112319F061E070E005C06FEFF1
:100E20007FEF02C060E070E0CB011F910895DF9377
:100E3000CF930F92CDB7DEB78983E1E4F0E08981EB
:100E4000886E80830F90CF91DF910895DF93CF93C9
:100E5000CDB7DEB7E1E4F0E088E18083E1E4F0E0E3
:100E60001082CF91DF910895DF93CF9300D000D00F
:100E70000F92CDB7DEB79D838C8380E88B831A8277
:100E80001982ABE2B0E0EBE2F0E080818C7F8C93E2
:100E9000ABE2B0E0EBE2F0E08081282FEC81FD8155
:100EA0008281882F90E0880F991F822B8C93AAE271
:100EB000B0E0EAE2F0E080818F7E8C93AAE2B0E0BD
:100EC000EAE2F0E08081282FEC81FD818081882F8B
:100ED00090E082959295907F9827807F9827822B2B
:100EE0008C93AAE2B0E0EAE2F0E08081877F8C9305
:100EF000AAE2B0E0EAE2F0E08081282FEC81FD81F7
:100F00008181882F90E0880F991F880F991F880F83
:100F1000991F822B8C93AAE2B0E0EAE2F0E0808194
:100F20008B7F8C93AAE2B0E0EAE2F0E08081282F88
:100F3000EC81FD81838186958695882F90E0817074
:100F40009070880F991F880F991F822B8C93EC81CA
:100F5000FD818581882F90E00024969587950794E0
:100F6000969587950794982F802D982F8B81892BA4
:100F70008B83EC81FD818681882F90E0829592950C
:100F8000907F9827807F9827982F8B81892B8B8340
:100F9000EC81FD818481882F90E0880F991F880F54
:100FA000991F880F991F982F8B81892B8B83EC8138
:100FB000FD8183818B7FEC81FD818383EC81FD81C9
:100FC0008381882F90E0880F991F982F8B81892B20
:100FD0008B83E0E4F0E08B818083EC81FD8187816D
:100FE0009085A185B285880F991FAA1FBB1F880F06
:100FF000991FAA1FBB1F880F991FAA1FBB1F880F0D
:10100000991FAA1FBB1F9C01AD0180E094E2A4EFD1
:10101000B0E0BC01CD010E94E925DA01C9010197C8
:101020009A838983E9E2F0E08981808389819A81CA
:101030008F3F910559F050F089819A81892F992726
:101040009A838983E0E4F0E0898180830F900F9098
:101050000F900F900F90CF91DF910895DF93CF9372
:101060000F92CDB7DEB78983EBE2F0E08081829505
:1010700086958770882F90E0817090700097A1F31B
:10108000ECE2F0E0898180830F90CF91DF910895A9
:10109000DF93CF9300D00F92CDB7DEB79B838A83C7
:1010A00019820EC08981282F30E08A819B81FC0142
:1010B000E20FF31F80810E942E0889818F5F898350
:1010C0008981282F30E08A819B81FC01E20FF31F88
:1010D0008081882339F70F900F900F90CF91DF9187
:1010E0000895DF93CF93CDB7DEB7EBE2F0E08081D8
:1010F0008823DCF7ECE2F0E08081CF91DF91089566
:101100000F931F93DF93CF9300D00F92CDB7DEB72D
:101110009B838A8319828981282F30E08A819B8171
:101120008C01020F131F0E947108F80180838981CE
:10113000282F30E08A819B81FC01E20FF31F808120
:101140008E3221F089818F5F8983E5CF8981882F55
:1011500090E09C012F5F3F4F8A819B81FC01E20F51
:10116000F31F10820F900F900F90CF91DF911F917E
:101170000F910895DF93CF9300D000D0CDB7DEB7A5
:101180009B838A836C8319820CC08981282F30E06D
:101190008A819B81FC01E20FF31F108289818F5F9E
:1011A000898399818C81981780F30F900F900F900D
:1011B0000F90CF91DF910895DF93CF930F92CDB72A
:1011C000DEB7898389818823FCF0E3E2F0E089813E
:1011D000880F8083A3E2B0E0E3E2F0E080818E7FBD
:1011E0008C93A6E5B0E0E6E5F0E080818F7D8C93FE
:1011F000A6E5B0E0E6E5F0E0808180688C93E6E566
:10120000F0E080818823DCF70F90CF91DF91089583
:10121000DF93CF930F92CDB7DEB78983E3E2F0E09F
:1012200089818083A6E5B0E0E6E5F0E08081806812
:101230008C93E6E5F0E080818823DCF70F90CF9176
:10124000DF910895DF93CF93CDB7DEB7A6E5B0E089
:10125000E6E5F0E0808180628C93A6E5B0E0E6E50B
:10126000F0E0808180688C93E6E5F0E0808188235F
:10127000DCF7CF91DF910895DF93CF930F92CDB735
:10128000DEB7898389818823FCF0E3E2F0E089817D
:10129000880F8083A3E2B0E0E3E2F0E08081816028
:1012A0008C93A6E5B0E0E6E5F0E080818F7D8C933D
:1012B000A6E5B0E0E6E5F0E0808180688C93E6E5A5
:1012C000F0E080818823DCF70F90CF91DF910895C3
:1012D000DF93CF93CDB7DEB7A6E5B0E0E6E5F0E06B
:1012E000808180648C93A6E5B0E0E6E5F0E0808143
:1012F00080688C93E6E5F0E080818823DCF7E3E208
:10130000F0E08081CF91DF910895DF93CF93CDB747
:10131000DEB7A1E2B0E0E1E2F0E080818E7F8C9365
:10132000A1E2B0E0E1E2F0E080818D7F8C93E0E229
:10133000F0E08CE08083A6E5B0E0E6E5F0E08081B7
:1013400080648C93A6E5B0E0E6E5F0E080818460FF
:101350008C93CF91DF910895DF93CF93CDB7DEB714
:10136000A6E5B0E0E6E5F0E0808180628C93A6E53A
:10137000B0E0E6E5F0E0808180688C93E6E5F0E09F
:1013800080818823DCF7CF91DF910895DF93CF939D
:10139000CDB7DEB7E6E5F0E084EC8083E6E5F0E08B
:1013A00080818823DCF7E3E2F0E08081CF91DF9158
:1013B0000895DF93CF93CDB7DEB7E6E5F0E084E99B
:1013C0008083CF91DF910895DF93CF93CDB7DEB7C0
:1013D000E2E2F0E084E08083A6E5B0E0E6E5F0E05C
:1013E00080818F7D8C93A6E5B0E0E6E5F0E080811A
:1013F0008F7E8C93A6E5B0E0E6E5F0E08081846422
:101400008C93CF91DF910895DF93CF9300D0CDB728
:10141000DEB7E6E5F0E080818823DCF7E1E2F0E08A
:101420008081E6E5F0E084EC8083E6E5F0E0808111
:101430008823DCF7E3E2F0E08081898389810F90E3
:101440000F90CF91DF910895DF93CF9300D000D01C
:10145000CDB7DEB79A838983AFE4B0E0EFE4F0E084
:1014600080818C7F8C93AFE4B0E0EFE4F0E080818A
:10147000982FE981FA8180818370892B8C93AEE467
:10148000B0E0EEE4F0E08081877E8C93AEE4B0E0E3
:10149000EEE4F0E08081282FE981FA818081882FB5
:1014A00090E08C709070880F991F822B8C93E9814B
:1014B000FA818381282F30E03C832B838B819C81B0
:1014C000009731F02B813C812130310509F13DC07D
:1014D00010929602AFE4B0E0EFE4F0E080818F7309
:1014E0008C93AFE4B0E0EFE4F0E08081282FE98155
:1014F000FA818181882F90E0002496958795079442
:10150000969587950794982F802D822B8C931DC0DC
:1015100081E080939602AFE4B0E0EFE4F0E08081F8
:101520008F7C8C93AFE4B0E0EFE4F0E08081282F73
:10153000E981FA818181882F90E082959295907F50
:101540009827807F9827822B8C93E981FA8182816A
:10155000809397020F900F900F900F90CF91DF9193
:101560000895DF93CF93CDB7DEB7AEE4B0E0EEE4FD
:10157000F0E08081887F8C93AEE4B0E0EEE4F0E0B0
:10158000908180919702892B8C93CF91DF91089560
:10159000DF93CF93CDB7DEB7AEE4B0E0EEE4F0E09A
:1015A0008081887F8C93CF91DF9108950F931F9353
:1015B000DF93CF93CDB7DEB72A970FB6F894DEBF8F
:1015C0000FBECDBF6B837C838D839E8358874F83F3
:1015D0001A82198206E410E08F819885880F991F7E
:1015E000880F991F9C0140E050E080E492E4AFE056
:1015F000B0E0BC01CD010E94E925DA01C9010197E3
:10160000F80191838083E6E4F0E080819181019686
:10161000CC01A0E0B0E0BC01CD010E94A904DC0136
:10162000CB01BC01CD012B813C814D815E810E94AB
:101630001F02DC01CB01BC01CD0120E030E048EC11
:1016400052E40E941903DC01CB01BC01CD0120E072
:1016500030E040E85FE30E94C101DC01CB01BC0146
:10166000CD010E944900DC01CB019A8389838091DE
:101670009602282F30E03A87298789859A85009736
:1016800031F0E985FA85E130F10541F00DC0EAE479
:10169000F0E089819A819183808306C0E8E4F0E0DC
:1016A00089819A81918380832A960FB6F894DEBF50
:1016B0000FBECDBFCF91DF911F910F910895DF93A2
:1016C000CF9300D00F92CDB7DEB789836A834B8367
:1016D000898180939802A3E5B0E0E3E5F0E08081A2
:1016E000877B8C93A3E5B0E0E3E5F0E08081282FD1
:1016F0008981882F90E0817090700024969587955D
:101700000794969587950794982F802D822B8C931C
:10171000A3E5B0E0E3E5F0E08081282F8981882F00
:1017200090E082709070880F991F880F991F822B0C
:101730008C938A8180939702A3E5B0E0E3E5F0E023
:1017400080818F7C8C93A3E5B0E0E3E5F0E08081BD
:10175000282F8B81882F90E082959295907F9827F3
:10176000807F9827822B8C930F900F900F90CF91B2
:10177000DF910895DF93CF93CDB7DEB7A3E5B0E057
:10178000E3E5F0E08081887F8C93A3E5B0E0E3E5BA
:10179000F0E0908180919702892B8C93CF91DF911B
:1017A0000895DF93CF93CDB7DEB7A3E5B0E0E3E5CF
:1017B000F0E08081887F8C93CF91DF910895DF9353
:1017C000CF93CDB7DEB72E970FB6F894DEBF0FBE1E
:1017D000CDBF6B877C878D879E8780919702882FEE
:1017E00090E00197880F991FFC01E854FE4F80811B
:1017F0009181CC01A0E0B0E020E432E44FE050E081
:10180000BC01CD010E94B725DC01CB0120E034E210
:1018100044EF50E0BC01CD010E940B26DA01C90162
:101820008F839887A987BA878B859C85AD85BE8570
:1018300028EE33E040E050E0BC01CD010E94B72526
:10184000DC01CB012F81388549855A85BC01CD014A
:101850000E94E925DA01C9018B839C83AD83BE8395
:1018600080919802882391F58B819C81AD81BE8106
:10187000892F9A2FAB2FBB278093F2019093F3010E
:10188000A093F401B093F5018B818093F6018091D0
:10189000F601882309F457C0E2E5F0E08091F601F3
:1018A000819580838091F2019091F301A091F401E0
:1018B000B091F5010196A11DB11D8093F2019093A5
:1018C000F301A093F401B093F5013DC0809198021B
:1018D0008230C9F580E091E09A83898305C08981CF
:1018E0009A8101979A83898389819A819C0140E03A
:1018F00050E08B819C81AD81BE81BC01CD010E94F5
:10190000E925DC01CB010097A105B10541F7ECE524
:10191000F0E089818150808389819A819C0140E037
:1019200050E08B819C81AD81BE81BC01CD010E94C4
:10193000E925DA01C9018093F2019093F301A093A4
:10194000F401B093F5012E960FB6F894DEBF0FBEEA
:10195000CDBFCF91DF910895DF93CF9300D0CDB766
:10196000DEB79A838983809198028823A9F4A9E538
:10197000B0E0E9E5F0E080818C7F8C93A9E5B0E0F0
:10198000E9E5F0E0808181608C9389819A81909370
:10199000F8018093F70118C0809198028230A1F479
:1019A000A9E5B0E0E9E5F0E080818C7F8C93A9E5C2
:1019B000B0E0E9E5F0E0808182608C9389819A81D2
:1019C0009093FA018093F9010F900F90CF91DF91DE
:1019D0000895DF93CF9300D00F92CDB7DEB78B83FE
:1019E0001A8219828B81882F90E0982F882724E60D
:1019F00030E0B9010E94D625CB0101979A838983F3
:101A0000ECE5F0E0898180830F900F900F90CF91EB
:101A1000DF9108951F920F920FB60F9211242F930A
:101A20003F934F935F936F937F938F939F93AF9366
:101A3000BF93EF93FF93DF93CF93CDB7DEB7809142
:101A4000FB019091FC01A091FD01B091FE01019676
:101A5000A11DB11D8093FB019093FC01A093FD019A
:101A6000B093FE012091FB013091FC014091FD01FA
:101A70005091FE018091F2019091F301A091F40147
:101A8000B091F501281739074A075B07C9F4E2E569
:101A9000F0E08091F601819580831092FB01109215
:101AA000FC011092FD011092FE018091F7019091CE
:101AB000F801009729F0E091F701F091F8010995FC
:101AC000CF91DF91FF91EF91BF91AF919F918F9156
:101AD0007F916F915F914F913F912F910F900FBE2A
:101AE0000F901F9018951F920F920FB60F9211240E
:101AF0002F933F934F935F936F937F938F939F9316
:101B0000AF93BF93EF93FF93DF93CF93CDB7DEB740
:101B10008091FF0190910002A0910102B091020218
:101B20000196A11DB11D8093FF0190930002A09327
:101B30000102B09302022091FF0130910002409116
:101B40000102509102028091F2019091F301A09163
:101B5000F401B091F501281739074A075B0799F49A
:101B60008091F9019091FA01009729F0E091F90133
:101B7000F091FA0109951092FF0110920002109263
:101B8000010210920202CF91DF91FF91EF91BF917C
:101B9000AF919F918F917F916F915F914F913F9105
:101BA0002F910F900FBE0F901F901895DF93CF933A
:101BB000CDB7DEB78DE061E00E9402108FE061E0FA
:101BC0000E940210EDE2F0E083E58083CF91DF9187
:101BD0000895DF93CF930F92CDB7DEB78983EFE2FD
:101BE000F0E089818083EEE2F0E080818823DCF7F9
:101BF000EFE2F0E080810F90CF91DF910895DF93C5
:101C0000CF9300D00F92CDB7DEB79B838A83198222
:101C10000EC08981282F30E08A819B81FC01E20F70
:101C2000F31F80810E94E90D89818F5F89838981FB
:101C3000282F30E08A819B81FC01E20FF31F808115
:101C4000882339F70F900F900F90CF91DF9108956F
:101C50000F931F93DF93CF9300D00F92CDB7DEB7D2
:101C60009B838A8319828981282F30E08A819B8116
:101C70008C01020F131F80E00E94E90DF8018083A0
:101C80008981282F30E08A819B81FC01E20FF31FBC
:101C900080818E3221F089818F5F8983E4CF8981B1
:101CA000882F90E09C012F5F3F4F8A819B81FC0130
:101CB000E20FF31F10820F900F900F90CF91DF91E2
:101CC0001F910F910895DF93CF93CDB7DEB7AFE5A6
:101CD000B0E0EFE5F0E0808180688C93CF91DF91F8
:101CE0000895DF93CF93CDB7DEB7AFE5B0E0EFE572
:101CF000F0E080818F778C93CF91DF910895DF930F
:101D0000CF9300D000D0CDB7DEB789836A838981B5
:101D1000282F30E03C832B838B819C81813091057F
:101D200009F12B813C8122303105D1F18B819C81DD
:101D3000009709F057C0A5E5B0E0E5E5F0E0808147
:101D40008C7F8C93A5E5B0E0E5E5F0E090818A8199
:101D5000892B8C93ABE5B0E0EBE5F0E0808180640B
:101D60008C9340C0A5E5B0E0E5E5F0E08081837F9D
:101D70008C93A5E5B0E0E5E5F0E08081282F8A812D
:101D8000882F90E0880F991F880F991F822B8C93C2
:101D9000ABE5B0E0EBE5F0E0808180688C9322C099
:101DA000A4E5B0E0E4E5F0E080818F7B8C93A4E5CE
:101DB000B0E0E4E5F0E08081282F8A81882F90E070
:101DC0000024969587950794969587950794982F64
:101DD000802D822B8C93ABE5B0E0EBE5F0E08081C9
:101DE00080628C930F900F900F900F90CF91DF91A6
:101DF0000895DF93CF9300D00F92CDB7DEB78983DC
:101E00008981282F30E03B832A838A819B8181301E
:101E1000910589F02A813B8122303105A1F08A8128
:101E20009B810097B9F4ABE5B0E0EBE5F0E0808191
:101E30008F7B8C930FC0ABE5B0E0EBE5F0E08081E9
:101E40008F778C9307C0ABE5B0E0EBE5F0E08081E5
:101E50008F7D8C930F900F900F90CF91DF9108950D
:101E6000DF93CF9300D000D00F92CDB7DEB7898338
:101E70007B836A838981282F30E03D832C838C818A
:101E80009D818130910581F02C813D812230310589
:101E900091F08C819D810097A1F48A819B81909320
:101EA0000402809303020DC08A819B8190930602F5
:101EB0008093050206C08A819B81909308028093DB
:101EC00007020F900F900F900F900F90CF91DF911E
:101ED00008951F920F920FB60F9211242F933F93E4
:101EE0004F935F936F937F938F939F93AF93BF9322
:101EF000EF93FF93DF93CF93CDB7DEB780910302CB
:101F000090910402009729F0E0910302F0910402FD
:101F10000995CF91DF91FF91EF91BF91AF919F9183
:101F20008F917F916F915F914F913F912F910F9082
:101F30000FBE0F901F9018951F920F920FB60F9221
:101F400011242F933F934F935F936F937F938F93BE
:101F50009F93AF93BF93EF93FF93DF93CF93CDB74F
:101F6000DEB78091050290910602009729F0E0917A
:101F70000502F09106020995CF91DF91FF91EF9153
:101F8000BF91AF919F918F917F916F915F914F9191
:101F90003F912F910F900FBE0F901F9018951F9299
:101FA0000F920FB60F9211242F933F934F935F938D
:101FB0006F937F938F939F93AF93BF93EF93FF9311
:101FC000DF93CF93CDB7DEB78091070290910802DF
:101FD000009729F0E0910702F09108020995CF914E
:101FE000DF91FF91EF91BF91AF919F918F917F9181
:101FF0006F915F914F913F912F910F900FBE0F9076
:102000001F901895DF93CF9300D000D000D0CDB7AC
:10201000DEB789836A838A81813009F07FC0898134
:10202000869586958695282F30E03E832D838D8179
:102030009E818130910569F12D813E8122303105EB
:102040002CF48D819E81009769F0EEC02D813E8138
:1020500022303105A9F18D819E818330910509F4EB
:1020600046C0E2C0AAE3B0E0EAE3F0E08081482F96
:102070008981882F90E09C012770307081E090E08A
:10208000022E02C0880F991F0A94E2F7842B8C93CA
:10209000CBC0A7E3B0E0E7E3F0E08081482F89817F
:1020A000882F90E09C012770307081E090E0022E34
:1020B00002C0880F991F0A94E2F7842B8C93B4C056
:1020C000A4E3B0E0E4E3F0E08081482F8981882F29
:1020D00090E09C012770307081E090E0022E02C0F9
:1020E000880F991F0A94E2F7842B8C939DC0A1E37B
:1020F000B0E0E1E3F0E08081482F8981882F90E013
:102100009C012770307081E090E0022E02C0880FA1
:10211000991F0A94E2F7842B8C9386C08A818823C6
:1021200009F082C08981869586958695282F30E0B2
:102130003C832B838B819C818130910571F12B81B4
:102140003C81223031052CF48B819C81009769F011
:102150006BC02B813C8122303105B9F18B819C8190
:102160008330910509F449C05FC0AAE3B0E0EAE317
:10217000F0E08081482F8981882F90E09C012770B2
:10218000307081E090E0022E02C0880F991F0A94FF
:10219000E2F7809584238C9347C0A7E3B0E0E7E3A0
:1021A000F0E08081482F8981882F90E09C01277082
:1021B000307081E090E0022E02C0880F991F0A94CF
:1021C000E2F7809584238C932FC0A4E3B0E0E4E38E
:1021D000F0E08081482F8981882F90E09C01277052
:1021E000307081E090E0022E02C0880F991F0A949F
:1021F000E2F7809584238C9317C0A1E3B0E0E1E37C
:10220000F0E08081482F8981882F90E09C01277021
:10221000307081E090E0022E02C0880F991F0A946E
:10222000E2F7809584238C9326960FB6F894DEBF50
:102230000FBECDBFCF91DF910895DF93CF9300D034
:1022400000D000D0CDB7DEB789836A838A81813020
:1022500009F07FC08981869586958695282F30E084
:102260003E832D838D819E818130910569F12D8181
:102270003E81223031052CF48D819E81009769F0DA
:10228000EEC02D813E8122303105A9F18D819E81E4
:102290008330910509F446C0E2C0ABE3B0E0EBE364
:1022A000F0E08081482F8981882F90E09C01277081
:1022B000307081E090E0022E02C0880F991F0A94CE
:1022C000E2F7842B8C93CBC0A8E3B0E0E8E3F0E026
:1022D0008081482F8981882F90E09C012770307081
:1022E00081E090E0022E02C0880F991F0A94E2F765
:1022F000842B8C93B4C0A5E3B0E0E5E3F0E08081EB
:10230000482F8981882F90E09C012770307081E0F0
:1023100090E0022E02C0880F991F0A94E2F7842BE6
:102320008C939DC0A2E3B0E0E2E3F0E08081482F0F
:102330008981882F90E09C012770307081E090E0C7
:10234000022E02C0880F991F0A94E2F7842B8C9307
:1023500086C08A81882309F082C089818695869506
:102360008695282F30E03C832B838B819C818130A4
:10237000910571F12B813C81223031052CF48B8148
:102380009C81009769F06BC02B813C812230310524
:10239000B9F18B819C818330910509F449C05FC0FC
:1023A000ABE3B0E0EBE3F0E08081482F8981882F38
:1023B00090E09C012770307081E090E0022E02C016
:1023C000880F991F0A94E2F7809584238C9347C065
:1023D000A8E3B0E0E8E3F0E08081482F8981882F0E
:1023E00090E09C012770307081E090E0022E02C0E6
:1023F000880F991F0A94E2F7809584238C932FC04D
:10240000A5E3B0E0E5E3F0E08081482F8981882FE3
:1024100090E09C012770307081E090E0022E02C0B5
:10242000880F991F0A94E2F7809584238C9317C034
:10243000A2E3B0E0E2E3F0E08081482F8981882FB9
:1024400090E09C012770307081E090E0022E02C085
:10245000880F991F0A94E2F7809584238C9326961F
:102460000FB6F894DEBF0FBECDBFCF91DF910895B8
:10247000DF93CF9300D000D0CDB7DEB789836A83D6
:102480008981282F30E03C832B838B819C81813094
:102490009105D1F02B813C81223031052CF48B81C8
:1024A0009C81009761F01EC02B813C812230310558
:1024B00081F08B819C818330910581F013C0EBE327
:1024C000F0E08A8180830EC0E8E3F0E08A818083B7
:1024D00009C0E5E3F0E08A81808304C0E2E3F0E034
:1024E0008A8180830F900F900F900F90CF91DF9192
:1024F0000895DF93CF9300D000D0CDB7DEB78983A6
:102500006A838981282F30E03C832B838B819C81D7
:1025100081309105D1F02B813C81223031052CF4A2
:102520008B819C81009761F01EC02B813C81223001
:10253000310581F08B819C818330910581F013C03E
:10254000EAE3F0E08A8180830EC0E7E3F0E08A816D
:10255000808309C0E4E3F0E08A81808304C0E1E382
:10256000F0E08A8180830F900F900F900F90CF91B1
:10257000DF910895DF93CF9300D000D0CDB7DEB7C1
:102580008A8319828A81869586958695282F30E0E0
:102590003C832B834B815C814130510559F18B8108
:1025A0009C818230910534F42B813C8121153105C9
:1025B00069F05BC04B815C814230510579F18B81C0
:1025C0009C818330910509F43DC04FC0E9E3F0E000
:1025D0008081282F30E08A81882F90E0877090706A
:1025E000A90102C0559547958A95E2F7CA01817005
:1025F00089833BC0E6E3F0E08081282F30E08A81C8
:10260000882F90E087709070A90102C0559547957A
:102610008A95E2F7CA018170898327C0E3E3F0E07D
:102620008081282F30E08A81882F90E08770907019
:10263000A90102C0559547958A95E2F7CA018170B4
:10264000898313C0E0E3F0E08081282F30E08A81A5
:10265000882F90E087709070A90102C0559547952A
:102660008A95E2F7CA018170898389810F900F9062
:102670000F900F90CF91DF910895DF93CF9300D00B
:102680000F92CDB7DEB78983898186958695869529
:10269000282F30E03B832A838A819B8181309105FA
:1026A00069F12A813B81223031052CF48A819B819A
:1026B000009769F067C02A813B8122303105A9F17A
:1026C0008A819B818330910509F446C05BC0ABE3EE
:1026D000B0E0EBE3F0E08081482F8981882F90E023
:1026E0009C012770307081E090E0022E02C0880FBC
:1026F000991F0A94E2F7842B8C9344C0A8E3B0E0BE
:10270000E8E3F0E08081482F8981882F90E09C01E8
:102710002770307081E090E0022E02C0880F991F70
:102720000A94E2F7842B8C932DC0A5E3B0E0E5E397
:10273000F0E08081482F8981882F90E09C012770EC
:10274000307081E090E0022E02C0880F991F0A9439
:10275000E2F7842B8C9316C0A2E3B0E0E2E3F0E052
:102760008081482F8981882F90E09C0127703070EC
:1027700081E090E0022E02C0880F991F0A94E2F7D0
:10278000842B8C930F900F900F90CF91DF91089531
:10279000DF93CF9300D00F92CDB7DEB789838981C5
:1027A000282F30E03B832A838A819B8181309105E9
:1027B00021F12A813B81223031052CF48A819B81D1
:1027C000009761F046C02A813B812230310521F11A
:1027D0008A819B818330910571F13BC0A7E2B0E013
:1027E000E7E2F0E080818F7B8C93A7E2B0E0E7E244
:1027F000F0E080818F778C932CC0A7E2B0E0E7E215
:10280000F0E0808180648C93A7E2B0E0E7E2F0E042
:1028100080818F778C931DC0A7E2B0E0E7E2F0E003
:1028200080818F7B8C93A7E2B0E0E7E2F0E08081CB
:1028300080688C930EC0A7E2B0E0E7E2F0E0808110
:1028400080648C93A7E2B0E0E7E2F0E080818068EA
:102850008C93A6E2B0E0E6E2F0E0808184608C93A5
:10286000A6E2B0E0E6E2F0E0808182608C93A6E22E
:10287000B0E0E6E2F0E0808181608C93A7E2B0E016
:10288000E7E2F0E080818F7D8C93A6E2B0E0E6E2A3
:10289000F0E080818F7D8C93A6E2B0E0E6E2F0E08C
:1028A000808188608C93A6E2B0E0E6E2F0E080816F
:1028B00080688C930F900F900F90CF91DF910895C7
:1028C000DF93CF93CDB7DEB76B970FB6F894DEBF2B
:1028D0000FBECDBF8B8F1A8E198EA7E2B0E0E7E254
:1028E000F0E08081982F907E8B8D892B8C93A6E2CF
:1028F000B0E0E6E2F0E0808180648C93E6E2F0E014
:10290000808182958F70882F90E081709070009701
:10291000A9F3A6E2B0E0E6E2F0E0808180618C936A
:1029200080E090E0A0E2B1E48D8B9E8BAF8BB88FFE
:102930006D897E898F89988D2BEA3AEA4AEA50E4BC
:102940000E941F02DC01CB01898B9A8BAB8BBC8B65
:1029500069897A898B899C8920E030E040E85FE3CF
:102960000E94250488231CF481E0888B91C069892A
:102970007A898B899C8920E030E04FE753E40E94FC
:10298000C50318160CF07BC06D897E898F89988DE0
:1029900020E030E04AE754E40E941903DC01CB0157
:1029A0008C879D87AE87BF876C857D858E859F854B
:1029B00020E030E04AE755E40E941F02DC01CB0131
:1029C00088879987AA87BB87688579858A859B854B
:1029D00020E030E040E85FE30E94250488232CF4E7
:1029E00081E090E09F838E833FC0688579858A85EA
:1029F0009B8520E03FEF4FE757E40E94C503181680
:102A00004CF56C857D858E859F8520E030E040E229
:102A100051E40E941F02DC01CB01BC01CD010E94E8
:102A20004900DC01CB019F838E830FC080E991E0D8
:102A30009D838C838C819D810197F1F79D838C838D
:102A40008E819F8101979F838E838E819F810097C6
:102A500069F724C0688579858A859B850E9449002D
:102A6000DC01CB019F838E838E819F819B838A8330
:102A70008A819B810197F1F79B838A830FC06989C3
:102A80007A898B899C890E944900DC01CB01888B63
:102A90008889898389818A95F1F78983E4E2F0E066
:102AA0008081282F30E0E5E2F0E08081882F90E0FF
:102AB000982F8827820F931F9A8F898F898D9A8DDF
:102AC000AA2797FDA095BA2FBC01CD016B960FB632
:102AD000F894DEBF0FBECDBFCF91DF910895DF9395
:102AE000CF930F92CDB7DEB78983A7E2B0E0E7E2DC
:102AF000F0E08081982F907E8981892B8C93A6E2CB
:102B0000B0E0E6E2F0E0808180648C930F90CF919A
:102B1000DF9108951F920F920FB60F9211242F93F9
:102B20003F934F935F936F937F938F939F93AF9355
:102B3000BF93EF93FF93DF93CF93CDB7DEB7809131
:102B4000090290910A02009729F0E0910902F091A0
:102B50000A020995A6E2B0E0E6E2F0E08081806139
:102B60008C93CF91DF91FF91EF91BF91AF919F91A6
:102B70008F917F916F915F914F913F912F910F9026
:102B80000FBE0F901F901895DF93CF9300D0CDB755
:102B9000DEB79A83898389819A8190930A02809310
:102BA00009020F900F90CF91DF910895DF93CF939B
:102BB00000D0CDB7DEB79A83898389819A81009747
:102BC00031F482E190E061E070E00E941D118981A2
:102BD0009A818130910531F487E190E061E070E005
:102BE0000E941D1189819A818230910531F48BE117
:102BF00090E061E070E00E941D110F900F90CF9166
:102C0000DF910895DF93CF9300D0CDB7DEB79A83DD
:102C1000898389819A81009731F482E190E060E0B4
:102C200070E00E941D1189819A818130910531F4F3
:102C300087E190E060E070E00E941D1189819A8137
:102C40008230910531F48BE190E060E070E00E9409
:102C50001D110F900F90CF91DF910895DF93CF93C7
:102C600000D0CDB7DEB79A83898389819A81009796
:102C700041F4A5E3B0E0E5E3F0E0908184E089274A
:102C80008C9389819A818130910541F4A5E3B0E06C
:102C9000E5E3F0E0908180E889278C9389819A812F
:102CA0008230910541F4A2E3B0E0E2E3F0E09081EC
:102CB00088E089278C930F900F90CF91DF91089532
:102CC000DF93CF93CDB7DEB76D970FB6F894DEBF25
:102CD0000FBECDBF8D8FA2E3B0E0E2E3F0E08081D4
:102CE000982F9F708D8D807F892B8C938BE061E076
:102CF0000E941D1180E090E0A0E8BFE3898F9A8FC9
:102D0000AB8FBC8F698D7A8D8B8D9C8D20E030E0F0
:102D10004AE755E40E941F02DC01CB018D8B9E8B9C
:102D2000AF8BB88F6D897E898F89988D20E030E0D8
:102D300040E85FE30E94250488232CF481E090E0C2
:102D40009C8B8B8B3FC06D897E898F89988D20E00D
:102D50003FEF4FE757E40E94C50318164CF5698D05
:102D60007A8D8B8D9C8D20E030E040E251E40E9412
:102D70001F02DC01CB01BC01CD010E944900DC0136
:102D8000CB019C8B8B8B0FC080E991E09A8B898B58
:102D900089899A890197F1F79A8B898B8B899C890C
:102DA00001979C8B8B8B8B899C89009769F714C04A
:102DB0006D897E898F89988D0E944900DC01CB0145
:102DC0009C8B8B8B8B899C89988B8F878F8598891F
:102DD0000197F1F7988B8F878BE060E00E941D11BF
:102DE000A2E3B0E0E2E3F0E08081282F2F708D8D28
:102DF000882F90E082959295907F9827807F9827E2
:102E0000822B8C938BE061E00E941D1180E090E0AA
:102E1000A0E8BFE38B879C87AD87BE876B857C85E9
:102E20008D859E8520E030E04AE755E40E941F0230
:102E3000DC01CB018F839887A987BA876F8178855A
:102E400089859A8520E030E040E85FE30E94250410
:102E500088232CF481E090E09E838D833FC06F81B6
:102E6000788589859A8520E03FEF4FE757E40E94F7
:102E7000C50318164CF56B857C858D859E8520E0F5
:102E800030E040E251E40E941F02DC01CB01BC01B2
:102E9000CD010E944900DC01CB019E838D830FC0D0
:102EA00080E991E09C838B838B819C810197F1F772
:102EB0009C838B838D819E8101979E838D838D81E1
:102EC0009E81009769F714C06F81788589859A85FE
:102ED0000E944900DC01CB019E838D838D819E8100
:102EE0009A83898389819A810197F1F79A838983EB
:102EF0008BE060E00E941D116D960FB6F894DEBF66
:102F00000FBECDBFCF91DF910895DF93CF930F9286
:102F1000CDB7DEB7898389E060E00E941D118AE0A9
:102F200060E00E941D1189810E9460160F90CF9170
:102F3000DF910895DF93CF93CDB7DEB7E8970FB653
:102F4000F894DEBF0FBECDBF8BE061E00E9402109F
:102F500089E061E00E9402108AE061E00E940210B4
:102F60008CE161E00E9402108DE161E00E9402109C
:102F70008EE161E00E9402108FE161E00E94021088
:102F800080E090E0A8E4B2E48DAB9EABAFABB8AF0D
:102F90006DA97EA98FA998AD20E030E04AE755E4FD
:102FA0000E941F02DC01CB0189AB9AABABABBCAB7F
:102FB00069A97AA98BA99CA920E030E040E85FE3E9
:102FC0000E94250488232CF481E090E098AB8FA721
:102FD0003FC069A97AA98BA99CA920E03FEF4FE7E0
:102FE00057E40E94C50318164CF56DA97EA98FA958
:102FF00098AD20E030E040E251E40E941F02DC0185
:10300000CB01BC01CD010E944900DC01CB0198AB92
:103010008FA70FC080E991E09EA78DA78DA59EA5E3
:103020000197F1F79EA78DA78FA598A9019798AB57
:103030008FA78FA598A9009769F714C069A97AA9E5
:103040008BA99CA90E944900DC01CB0198AB8FA7FA
:103050008FA598A99CA78BA78BA59CA50197F1F795
:103060009CA78BA783E30E94851782E30E948517A4
:1030700088E20E94851780E090E0A0E8BFE38FA37C
:1030800098A7A9A7BAA76FA178A589A59AA520E0B6
:1030900030E04AE755E40E941F02DC01CB018BA31C
:1030A0009CA3ADA3BEA36BA17CA18DA19EA120E09A
:1030B00030E040E85FE30E94250488232CF481E09F
:1030C00090E09AA389A33FC06BA17CA18DA19EA192
:1030D00020E03FEF4FE757E40E94C50318164CF578
:1030E0006FA178A589A59AA520E030E040E251E4DF
:1030F0000E941F02DC01CB01BC01CD010E944900EE
:10310000DC01CB019AA389A30FC080E991E098A3C9
:103110008F8F8F8D98A10197F1F798A38F8F89A139
:103120009AA101979AA389A389A19AA1009769F707
:1031300014C06BA17CA18DA19EA10E944900DC015D
:10314000CB019AA389A389A19AA19E8F8D8F8D8D82
:103150009E8D0197F1F79E8F8D8F8FE00E948517CE
:1031600080E090E0A0E8BFE3898F9A8FAB8FBC8F9F
:10317000698D7A8D8B8D9C8D20E030E04AE755E497
:103180000E941F02DC01CB018D8B9E8BAF8BB88F11
:103190006D897E898F89988D20E030E040E85FE37B
:1031A0000E94250488232CF481E090E09C8B8B8B7B
:1031B0003FC06D897E898F89988D20E03FEF4FE772
:1031C00057E40E94C50318164CF5698D7A8D8B8DD6
:1031D0009C8D20E030E040E251E40E941F02DC01BF
:1031E000CB01BC01CD010E944900DC01CB019C8BCD
:1031F0008B8B0FC080E991E09A8B898B89899A89A2
:103200000197F1F79A8B898B8B899C8901979C8B0D
:103210008B8B8B899C89009769F714C06D897E8997
:103220008F89988D0E944900DC01CB019C8B8B8B90
:103230008B899C89988B8F878F8598890197F1F767
:10324000988B8F8781E00E94851780E090E0A0E056
:10325000B0E48B879C87AD87BE876B857C858D8529
:103260009E8520E030E04AE755E40E941F02DC0121
:10327000CB018F839887A987BA876F8178858985E5
:103280009A8520E030E040E85FE30E94250488232F
:103290002CF481E090E09E838D833FC06F81788520
:1032A00089859A8520E03FEF4FE757E40E94C503E8
:1032B00018164CF56B857C858D859E8520E030E069
:1032C00040E251E40E941F02DC01CB01BC01CD01B0
:1032D0000E944900DC01CB019E838D830FC080E9F1
:1032E00091E09C838B838B819C810197F1F79C8378
:1032F0008B838D819E8101979E838D838D819E819D
:10330000009769F714C06F81788589859A850E9436
:103310004900DC01CB019E838D838D819E819A8340
:10332000898389819A810197F1F79A83898386E05D
:103330000E948517E8960FB6F894DEBF0FBECDBF8A
:10334000CF91DF910895DF93CF930F92CDB7DEB782
:10335000898389E061E00E941D118AE060E00E949B
:103360001D1189810E9460160F90CF91DF91089501
:10337000DF93CF93CDB7DEB761970FB6F894DEBF7A
:103380000FBECDBF998B888B1F8680C08F85282F5D
:1033900030E088899989FC01E20FF31F80810E9447
:1033A000A31980E090E0A8ECB2E48B879C87AD87FE
:1033B000BE876B857C858D859E8520E030E04AE761
:1033C00055E40E941F02DC01CB018F839887A987F7
:1033D000BA876F81788589859A8520E030E040E85A
:1033E0005FE30E94250488232CF481E090E09E8313
:1033F0008D833FC06F81788589859A8520E03FEF76
:103400004FE757E40E94C50318164CF56B857C8581
:103410008D859E8520E030E040E251E40E941F024D
:10342000DC01CB01BC01CD010E944900DC01CB01D4
:103430009E838D830FC080E991E09C838B838B8179
:103440009C810197F1F79C838B838D819E810197ED
:103450009E838D838D819E81009769F714C06F8153
:10346000788589859A850E944900DC01CB019E837D
:103470008D838D819E819A83898389819A81019729
:10348000F1F79A8389838F858F5F8F878F85282FA8
:1034900030E088899989FC01E20FF31F808188233D
:1034A00009F074CF61960FB6F894DEBF0FBECDBFA2
:1034B000CF91DF910895EF92FF920F931F93DF93C7
:1034C000CF93CDB7DEB72E970FB6F894DEBF0FBE01
:1034D000CDBF6B877C878D879E878B859C85AD85CF
:1034E000BE858F839887A987BA871A82198215C0EB
:1034F00089818F5F89838F819885A985BA852AE024
:1035000030E040E050E0BC01CD010E94E925DA0145
:10351000C9018F839887A987BA878F819885A985E4
:10352000BA850097A105B10519F736C08B819C813A
:10353000AD81BE812AE030E040E050E0BC01CD0129
:103540000E94B7257B018C018B859C85AD85BE854E
:103550002AE030E040E050E0BC01CD010E94E925C6
:10356000DC01CB018E0D9F1DA01FB11F8B839C839F
:10357000AD83BE838B859C85AD85BE852AE030E01A
:1035800040E050E0BC01CD010E94E925DA01C9010B
:103590008B879C87AD87BE878B859C85AD85BE85D7
:1035A0000097A105B10511F628C08B819C81AD81E2
:1035B000BE812AE030E040E050E0BC01CD010E9435
:1035C000E925DC01CB018A838B819C81AD81BE81A1
:1035D0002AE030E040E050E0BC01CD010E94E92546
:1035E000DA01C9018B839C83AD83BE838A81805DB0
:1035F0000E94A31989818150898389818823A9F632
:103600002E960FB6F894DEBF0FBECDBFCF91DF91DF
:103610001F910F91FF90EF900895DF93CF93CDB757
:10362000DEB781E00E948517CF91DF910895DF9387
:10363000CF9300D0CDB7DEB789836A83898181308B
:1036400029F48A8180580E94851707C089818230B9
:1036500021F48A8180540E9485170F900F90CF919A
:10366000DF910895DF93CF930F92CDB7DEB780E45B
:103670000E94851719820CC08981882F90E0FC0177
:10368000E952FE4F80810E94A31989818F5F89834F
:103690008981883088F381E062E00E94171B0F90D7
:1036A000CF91DF910895DF93CF9300D0CDB7DEB7F0
:1036B0009A8389830E940D1B89819A810E94B8197F
:1036C0000F900F90CF91DF910895DF93CF93CDB7F7
:1036D000DEB78CE061E00E9402108DE061E00E94A4
:1036E00002108EE061E00E9402108FE061E00E9413
:1036F00002108CE061E00E941D118DE061E00E94EB
:103700001D118EE061E00E941D118FE061E00E94BA
:103710001D1182E060E00E94791282E068E70E9459
:103720003812CF91DF910895DF93CF93CDB7DEB7F5
:1037300061970FB6F894DEBF0FBECDBF86E98F87C5
:10374000198AA7C08989845F60E00E941D11188AC8
:1037500094C088898D5E0E94BA12882309F08AC0BD
:103760008989482F50E08889282F30E0CA01880FC6
:10377000991F880F991F820F931FFC01EE53FE4F74
:1037800080818F8788898D5E0E94BA128823D1F349
:1037900080E090E0A8E4B2E48B879C87AD87BE8789
:1037A0006B857C858D859E8520E030E04AE755E479
:1037B0000E941F02DC01CB018F839887A987BA87FB
:1037C0006F81788589859A8520E030E040E85FE365
:1037D0000E94250488232CF481E090E09E838D8351
:1037E0003FC06F81788589859A8520E03FEF4FE75C
:1037F00057E40E94C50318164CF56B857C858D85B2
:103800009E8520E030E040E251E40E941F02DC018E
:10381000CB01BC01CD010E944900DC01CB019E839C
:103820008D830FC080E991E09C838B838B819C8189
:103830000197F1F79C838B838D819E8101979E83F5
:103840008D838D819E81009769F714C06F81788583
:1038500089859A850E944900DC01CB019E838D8376
:103860008D819E819A83898389819A810197F1F75D
:103870009A83898388898F5F888B8889843008F44C
:1038800068CF8989845F61E00E941D1189898F5FFB
:10389000898B8989843008F455CF8F8561960FB65E
:1038A000F894DEBF0FBECDBFCF91DF910895DF93B7
:1038B000CF93CDB7DEB762970FB6F894DEBF0FBED9
:1038C000CDBF998B888B6A8B88899989892F992795
:1038D00080658F870E9485090E94AC098F85882F9B
:1038E00090E00E94DC088889882F90E00E940809F7
:1038F0008A89882F90E00E9408090E94D90980E0F7
:1039000090E0A0EAB0E48B879C87AD87BE876B858B
:103910007C858D859E8520E030E04AE755E40E9455
:103920001F02DC01CB018F839887A987BA876F813B
:10393000788589859A8520E030E040E85FE30E9441
:10394000250488232CF481E090E09E838D833FC082
:103950006F81788589859A8520E03FEF4FE757E4AE
:103960000E94C50318164CF56B857C858D859E8558
:1039700020E030E040E251E40E941F02DC01CB0174
:10398000BC01CD010E944900DC01CB019E838D83E7
:103990000FC080E991E09C838B838B819C81019790
:1039A000F1F79C838B838D819E8101979E838D830C
:1039B0008D819E81009769F714C06F817885898514
:1039C0009A850E944900DC01CB019E838D838D8105
:1039D0009E819A83898389819A810197F1F79A83DD
:1039E000898362960FB6F894DEBF0FBECDBFCF912C
:1039F000DF910895DF93CF93CDB7DEB7A1970FB6D0
:103A0000F894DEBF0FBECDBF9F8F8E8F79A368A3C2
:103A100099C08E8D9F8D892F992780658D8F0E94EB
:103A200085090E94AC098D8D882F90E00E94DC08EA
:103A30008E8D882F90E00E940809E8A1F9A180816D
:103A4000882F90E00E9408090E94D90980E090E048
:103A5000A0EAB0E4898F9A8FAB8FBC8F698D7A8D85
:103A60008B8D9C8D20E030E04AE755E40E941F02D8
:103A7000DC01CB018D8B9E8BAF8BB88F6D897E89DE
:103A80008F89988D20E030E040E85FE30E942504B4
:103A900088232CF481E090E09C8B8B8B3FC06D8958
:103AA0007E898F89988D20E03FEF4FE757E40E9491
:103AB000C50318164CF5698D7A8D8B8D9C8D20E091
:103AC00030E040E251E40E941F02DC01CB01BC0166
:103AD000CD010E944900DC01CB019C8B8B8B0FC078
:103AE00080E991E09A8B898B89899A890197F1F70E
:103AF0009A8B898B8B899C8901979C8B8B8B8B896B
:103B00009C89009769F714C06D897E898F89988D8B
:103B10000E944900DC01CB019C8B8B8B8B899C899B
:103B2000988B8F878F8598890197F1F7988B8F876E
:103B300088A199A1019699A388A38E8D9F8D019646
:103B40009F8F8E8FE8A1F9A18081882309F061CF32
:103B500080E090E0A0EAB0E48B879C87AD87BE87C9
:103B60006B857C858D859E8520E030E04AE755E4B5
:103B70000E941F02DC01CB018F839887A987BA8737
:103B80006F81788589859A8520E030E040E85FE3A1
:103B90000E94250488232CF481E090E09E838D838D
:103BA0003FC06F81788589859A8520E03FEF4FE798
:103BB00057E40E94C50318164CF56B857C858D85EE
:103BC0009E8520E030E040E251E40E941F02DC01CB
:103BD000CB01BC01CD010E944900DC01CB019E83D9
:103BE0008D830FC080E991E09C838B838B819C81C6
:103BF0000197F1F79C838B838D819E8101979E8332
:103C00008D838D819E81009769F714C06F817885BF
:103C100089859A850E944900DC01CB019E838D83B2
:103C20008D819E819A83898389819A810197F1F799
:103C30009A838983A1960FB6F894DEBF0FBECDBFDD
:103C4000CF91DF910895DF93CF9300D000D0CDB70F
:103C5000DEB79C838B838B819C81892F992780651C
:103C60008A830E9485090E94AC098A81882F90E08E
:103C70000E94DC088B81882F90E00E9408090E9436
:103C800022098A81882F90E00E943C090E946809DD
:103C900089830E94D90989810F900F900F900F900E
:103CA000CF91DF9108950F931F93DF93CF93CDB7FB
:103CB000DEB767970FB6F894DEBF0FBECDBF9B8B04
:103CC0008A8B7D8B6C8B5F8B4E8B8A899B89892F2E
:103CD00099278065898B0E948509188A1F869AC05A
:103CE0000E94AC098989882F90E00E94DC088A89AB
:103CF000882F90E00E9408090E9422098989882F54
:103D000090E00E943C092C893D898F859889890122
:103D1000080F191F0E946809F801808380E090E075
:103D2000A0EAB0E48B879C87AD87BE876B857C85D6
:103D30008D859E8520E030E04AE755E40E941F0211
:103D4000DC01CB018F839887A987BA876F8178853B
:103D500089859A8520E030E040E85FE30E942504F1
:103D600088232CF481E090E09E838D833FC06F8197
:103D7000788589859A8520E03FEF4FE757E40E94D8
:103D8000C50318164CF56B857C858D859E8520E0D6
:103D900030E040E251E40E941F02DC01CB01BC0193
:103DA000CD010E944900DC01CB019E838D830FC0B1
:103DB00080E991E09C838B838B819C810197F1F753
:103DC0009C838B838D819E8101979E838D838D81C2
:103DD0009E81009769F714C06F81788589859A85DF
:103DE0000E944900DC01CB019E838D838D819E81E1
:103DF0009A83898389819A810197F1F79A838983CC
:103E00008A899B8901969B8B8A8B8F8598890196DD
:103E1000988B8F872F8538898E899F892817390736
:103E200008F45ECF0E94D9098C899D892E893F892B
:103E3000FC01E20FF31F108267960FB6F894DEBF05
:103E40000FBECDBFCF91DF911F910F910895DF93EA
:103E5000CF93CDB7DEB78CE160E00E9402108DE118
:103E600060E00E94021083E161E00E94021084E1A0
:103E700061E00E94021085E161E00E94021086E18B
:103E800061E00E9402108BE061E00E94021083E07A
:103E900063E042E00E945F0B0E94BA0BCF91DF917A
:103EA0000895DF93CF9300D0CDB7DEB789836A83BF
:103EB0008CE161E00E941D118DE161E00E941D1105
:103EC0008A81813049F483E161E00E941D1184E11F
:103ED00060E00E941D1108C083E160E00E941D1196
:103EE00084E161E00E941D1189810E94E90C0F901C
:103EF0000F90CF91DF910895DF93CF93CDB7DEB7C9
:103F000080E00E94E90CCF91DF910895DF93CF9379
:103F1000CDB7DEB78AE190E060E070E00E94021069
:103F2000CF91DF910895DF93CF9300D0CDB7DEB767
:103F30001A8219828AE190E00E94BA129A838983D8
:103F400089819A810F900F90CF91DF910895DF932F
:103F5000CF93CDB7DEB78EE190E060E070E00E94D5
:103F60000210CF91DF910895DF93CF9300D0CDB7AA
:103F7000DEB786E990E09A8389838EE190E00E9423
:103F8000BA129A83898389819A810F900F90CF9179
:103F9000DF910895DF93CF93CDB7DEB788E190E04E
:103FA00060E070E00E940210CF91DF910895DF93EE
:103FB000CF9300D0CDB7DEB786E990E09A838983AE
:103FC00088E190E00E94BA129A83898389819A815C
:103FD0000F900F90CF91DF910895DF93CF93CDB7DE
:103FE000DEB760970FB6F894DEBF0FBECDBF8B87EC
:103FF000CE0101969D878C87EFEDF1E0FF87EE877C
:10400000FAE0F88BEE85FF8500808E859F8501960E
:104010009F878E87EC85FD8500828C859D85019626
:104020009D878C8798899150988BE889EE2351F76A
:104030008B858A3068F48B85282F30E0CE0101967D
:10404000FC01E20FF31F908180E0692F0E9438127B
:1040500060960FB6F894DEBF0FBECDBFCF91DF9153
:104060000895DF93CF93CDB7DEB7A8970FB6F89436
:10407000DEBF0FBECDBF6DA37EA38FA398A78DA17A
:104080009EA1AFA1B8A52AE030E040E050E0BC011D
:10409000CD010E94E925DC01CB0189A39AA3ABA342
:1040A000BCA38DA19EA1AFA1B8A52AE030E040E05D
:1040B00050E0BC01CD010E94E925DA01C9018D8FD4
:1040C0009E8FAF8FB8A3EBE3F0E089A18295807F4C
:1040D000808389E061E00E941D118AE060E00E9417
:1040E0001D1180E090E0A0E2B1E4898F9A8FAB8F40
:1040F000BC8F698D7A8D8B8D9C8D20E030E04AE7F6
:1041000055E40E941F02DC01CB018D8B9E8BAF8B8F
:10411000B88F6D897E898F89988D20E030E040E8E6
:104120005FE30E94250488232CF481E090E09C8BBF
:104130008B8B3FC06D897E898F89988D20E03FEF02
:104140004FE757E40E94C50318164CF5698D7A8D28
:104150008B8D9C8D20E030E040E251E40E941F02F4
:10416000DC01CB01BC01CD010E944900DC01CB0187
:104170009C8B8B8B0FC080E991E09A8B898B89890E
:104180009A890197F1F79A8B898B8B899C89019782
:104190009C8B8B8B8B899C89009769F714C06D89E8
:1041A0007E898F89988D0E944900DC01CB019C8B10
:1041B0008B8B8B899C89988B8F878F8598890197AA
:1041C000F1F7988B8F87EBE3F0E08D8D8295807F00
:1041D00080838AE061E00E941D1189E060E00E9416
:1041E0001D1180E090E0A0E2B1E48B879C87AD8751
:1041F000BE876B857C858D859E8520E030E04AE713
:1042000055E40E941F02DC01CB018F839887A987A8
:10421000BA876F81788589859A8520E030E040E80B
:104220005FE30E94250488232CF481E090E09E83C4
:104230008D833FC06F81788589859A8520E03FEF27
:104240004FE757E40E94C50318164CF56B857C8533
:104250008D859E8520E030E040E251E40E941F02FF
:10426000DC01CB01BC01CD010E944900DC01CB0186
:104270009E838D830FC080E991E09C838B838B812B
:104280009C810197F1F79C838B838D819E8101979F
:104290009E838D838D819E81009769F714C06F8105
:1042A000788589859A850E944900DC01CB019E832F
:1042B0008D838D819E819A83898389819A810197DB
:1042C000F1F79A838983A8960FB6F894DEBF0FBEE4
:1042D000CDBFCF91DF910895DF93CF93CDB7DEB7F8
:1042E00080911502482F50E0E4E2F0E08081282F11
:1042F00030E0E5E2F0E08081882F90E0982F882779
:10430000820F931F9C01CA01880F991FFC01E55F72
:10431000FD4F31832083809115028F5F80931502BA
:1043200080911502853010F010921502A7E2B0E0DE
:10433000E7E2F0E08081282F207E80911502882F0F
:1043400090E0FC01EE52FE4F8081822B8C93A6E21E
:10435000B0E0E6E2F0E0808180648C93CF91DF9161
:104360000895DF93CF93CDB7DEB7C35FD0400FB6CC
:10437000F894DEBF0FBECDBF81E061E00E947912EC
:104380000E949A1780E060E00E94021081E060E0E5
:104390000E94021082E060E00E94021083E060E070
:1043A0000E94021084E060E00E94021083E06FEF40
:1043B0000E94791283E00E94C8138CE691E20E9469
:1043C000C4150E94630E80911502882F90E0FC01B5
:1043D000EE52FE4F8081882F90E00E946F151F865D
:1043E000188A198A1A8A8CE0FE017396DF01282F39
:1043F0001D922A95E9F7CE014F96C552DF4F99835A
:104400008883CB5DD040A0E6B0E0C352DF4FB983D4
:10441000A883CD5DD040B1E1C152DF4FB883CF5DFD
:10442000D040C352DF4FE881F981CD5DD04000809C
:10443000C352DF4F88819981CD5DD0400196C35230
:10444000DF4F99838883CD5DD040C552DF4FA8816F
:10445000B981CB5DD0400C92C552DF4FE881F98124
:10446000CB5DD0403196C552DF4FF983E883CB5DF9
:10447000D040C152DF4FF881CF5DD040F150C152E2
:10448000DF4FF883CF5DD040C152DF4F2881CF5D31
:10449000D040222331F6CE01C096C052DF4F99831F
:1044A0008883C05ED040A1E7B0E0CE51DF4FB98332
:1044B000A883C25ED040BBE0CC51DF4FB883C45E5E
:1044C000D040CE51DF4FE881F981C25ED0400080FC
:1044D000CE51DF4F88819981C25ED0400196CE5186
:1044E000DF4F99838883C25ED040C052DF4FA881DE
:1044F000B981C05ED0400C92C052DF4FE881F98193
:10450000C05ED0403196C052DF4FF983E883C05E71
:10451000D040CC51DF4FF881C45ED040F150CC5137
:10452000DF4FF883C45ED040CC51DF4F2881C45E9A
:10453000D040222331F6CE01CB96CB51DF4F998369
:104540008883C55ED040ACE7B0E0C951DF4FB98386
:10455000A883C75ED040B2E1C751DF4FB883C95EC0
:10456000D040C951DF4FE881F981C75ED04000805B
:10457000C951DF4F88819981C75ED0400196C951EA
:10458000DF4F99838883C75ED040CB51DF4FA8812E
:10459000B981C55ED0400C92CB51DF4FE881F981E3
:1045A000C55ED0403196CB51DF4FF983E883C55EBD
:1045B000D040C751DF4FF881C95ED040F150C7519C
:1045C000DF4FF883C95ED040C751DF4F2881C95EF5
:1045D000D040222331F6CE01835B9F4FC651DF4F7F
:1045E00099838883CA5ED0408EE890E0C451DF4F43
:1045F00099838883CC5ED04099E0C251DF4F988385
:10460000CE5ED040C451DF4FA881B981CC5ED0408E
:104610000C90C451DF4FE881F981CC5ED0403196D7
:10462000C451DF4FF983E883CC5ED040C651DF4FE1
:10463000A881B981CA5ED0400C92C651DF4FE88193
:10464000F981CA5ED0403196C651DF4FF983E883C5
:10465000CA5ED040C251DF4FF881CE5ED040F150EB
:10466000C251DF4FF883CE5ED040C251DF4F288168
:10467000CE5ED040222331F6CE018A5A9F4FC151DF
:10468000DF4F99838883CF5ED04087E990E0CF5099
:10469000DF4F99838883C15FD04091E1CD50DF4FD8
:1046A0009883C35FD040CF50DF4FA881B981C15FED
:1046B000D0400C90CF50DF4FE881F981C15FD040EE
:1046C0003196CF50DF4FF983E883C15FD040C151AD
:1046D000DF4FA881B981CF5ED0400C92C151DF4F2E
:1046E000E881F981CF5ED0403196C151DF4FF98327
:1046F000E883CF5ED040CD50DF4FF881C35FD0401C
:10470000F150CD50DF4FF883C35FD040CD50DF4F25
:104710002881C35FD040222331F6FE01E959FF4FC3
:104720008091A8009091A900A091AA00B091AB003F
:1047300080839183A283B383FE01E559FF4F1082EA
:104740001182128213828CE03496DF01282F1D9291
:104750002A95E9F7FE01E558FF4F10821182128277
:1047600013828CE03496DF01282F1D922A95E9F7F9
:10477000FE01E557FF4F10821182128213828CE0F6
:104780003496DF01282F1D922A95E9F7FE01E556A0
:10479000FF4F10821182128213828CE03496DF0167
:1047A000282F1D922A95E9F7FE01E555FF4F10824B
:1047B0001182128213828CE03496DF01282F1D9221
:1047C0002A95E9F7FE01E554FF4F1082118212820B
:1047D00013828CE03496DF01282F1D922A95E9F789
:1047E00080E090E0A8ECB2E48B879C87AD87BE8721
:1047F0006B857C858D859E8520E030E04AE755E419
:104800000E941F02DC01CB018F839887A987BA879A
:104810006F81788589859A8520E030E040E85FE304
:104820000E94250488232CF481E090E09E838D83F0
:104830003FC06F81788589859A8520E03FEF4FE7FB
:1048400057E40E94C50318164CF56B857C858D8551
:104850009E8520E030E040E251E40E941F02DC012E
:10486000CB01BC01CD010E944900DC01CB019E833C
:104870008D830FC080E991E09C838B838B819C8129
:104880000197F1F79C838B838D819E8101979E8395
:104890008D838D819E81009769F714C06F81788523
:1048A00089859A850E944900DC01CB019E838D8316
:1048B0008D819E819A83898389819A810197F1F7FD
:1048C0009A838983FE01E553FF4F10821182128281
:1048D00013828CE03496DF01282F1D922A95E9F788
:1048E00080910B0290910C02A3E086349A0750F15C
:1048F00080910F0290911002B3E086349B0710F173
:104900008091110290911202E3E086349E07D0F06C
:104910008091130290911402F3E085349F0790F484
:1049200080910D0290910E0223E08534920750F49D
:10493000CE0185539F4F9E0125593F4FB9010E94DB
:104940007A26FCC080910F0290911002A3E0863479
:104950009A0750F18091110290911202B3E08634CF
:104960009B0710F180910B0290910C02E3E08534DB
:104970009E07D0F480910D0290910E02F3E08534F1
:104980009F0790F4809113029091140223E08534E4
:10499000920750F4CE0185539F4F9E0125583F4FFB
:1049A000B9010E947A26CAC0809111029091120228
:1049B000A3E086349A0750F180910B0290910C028B
:1049C000B3E085349B0710F580910D0290910E02A3
:1049D000E3E085349E07D0F480910F02909110029D
:1049E000F3E085349F0790F48091130290911402B4
:1049F00023E08534920750F4CE0185539F4F9E01EA
:104A000025573F4FB9010E947A2698C080910D0228
:104A100090910E02A3E086349A0750F180910F0224
:104A200090911002B3E086349B0710F1809111023F
:104A300090911202E3E086349E07D0F08091130239
:104A400090911402F3E086349F0790F080910B025E
:104A500090910C0223E08534920750F4CE018553E7
:104A60009F4F9E0125563F4FB9010E947A2666C08E
:104A700080910B0290910C02A3E086349A0750F1CA
:104A80008091110290911202B3E086349B0710F1DD
:104A90008091130290911402E3E086349E07D0F0D7
:104AA00080910F0290911002F3E085349F0790F4FB
:104AB00080910D0290910E0223E08534920750F40C
:104AC000CE0185539F4F9E0125553F4FB9010E944E
:104AD0007A2634C080910B0290910C02A3E08634B8
:104AE0009A0750F18091110290911202B3E086343E
:104AF0009B0710F18091130290911402E3E0863439
:104B00009E07D0F080910F0290911002F3E086345E
:104B10009F0790F080910D0290910E0223E0853462
:104B2000920750F4CE0185539F4F9E0125543F4F6D
:104B3000B9010E947A2602C00E940D1BCE010F9679
:104B40009E0125533F4FB9010E947126009709F439
:104B5000B9CECE0185539F4F0E94531BCE010F96B5
:104B60009E0125533F4FB9010E947A26ABCE629F2A
:104B7000D001739FF001829FE00DF11D649FE00D55
:104B8000F11D929FF00D839FF00D749FF00D659FB6
:104B9000F00D9927729FB00DE11DF91F639FB00DB5
:104BA000E11DF91FBD01CF011124089597FB092EC6
:104BB00007260AD077FD04D049D006D000201AF489
:104BC000709561957F4F0895F6F7909581959F4F69
:104BD0000895A1E21A2EAA1BBB1BFD010DC0AA1F3E
:104BE000BB1FEE1FFF1FA217B307E407F50720F056
:104BF000A21BB30BE40BF50B661F771F881F991FD1
:104C00001A9469F760957095809590959B01AC0119
:104C1000BD01CF01089597FB092E05260ED057FD43
:104C200004D0D7DF0AD0001C38F450954095309559
:104C300021953F4F4F4F5F4F0895F6F79095809520
:104C4000709561957F4F8F4F9F4F0895AA1BBB1B97
:104C500051E107C0AA1FBB1FA617B70710F0A61B7C
:104C6000B70B881F991F5A95A9F780959095BC019D
:104C7000CD0108952F923F924F925F926F927F9253
:104C80008F929F92AF92BF92CF92DF92EF92FF925C
:104C90000F931F93CF93DF93CDB7DEB7CA1BDB0B08
:104CA0000FB6F894DEBF0FBECDBF09942A883988AD
:104CB00048885F846E847D848C849B84AA84B984B4
:104CC000C884DF80EE80FD800C811B81AA81B981C0
:104CD000CE0FD11D0FB6F894DEBF0FBECDBFED01D4
:104CE0000895FB01DC018D91019080190110D9F329
:104CF000990B0895FB01DC0101900D920020E1F772
:064D00000895F894FFCFB6
:104D060054686973206973207465727269626C6590
:104D16000049204C6F766520596F75004920526511
:104D2600616C6C79204C6F766520596F7500476F02
:104D36006F64204A6F620049276D2077617463684B
:104D4600696E6720796F7500596F75000000000065
:104D5600000000000001020203030303040404042C
:104D660004040404050505050505050505050505F1
:104D760005050505060606060606060606060606D1
:104D860006060606060606060606060606060606BD
:104D960006060606070707070707070707070707A1
:104DA600070707070707070707070707070707078D
:104DB600070707070707070707070707070707077D
:104DC600070707070707070707070707070707076D
:104DD6000707070708080808080808080808080851
:104DE600080808080808080808080808080808083D
:104DF600080808080808080808080808080808082D
:104E0600080808080808080808080808080808081C
:104E1600080808080808080808080808080808080C
:104E260008080808080808080808080808080808FC
:104E360008080808080808080808080808080808EC
:104E460008080808080808080808080808080808DC
:104E5600080808080E0203000100080040000001CF
:104E660000044423302A4339383742363534413337
:104E760032310001020304000A1F1F0E0400000065
:0A4E86001020304050607080900052
:00000001FF
